ACAM3NR
HFDTE290813
HFFXA050
HFPLTPILOT:Pedja Bogdanovich       
HFGTYGLIDERTYPE:Ventus 2ax  
HFGIDGLIDERID:011         
HFDTM100GPSDATUM:
HFRFWFIRMWAREVERSION:F2.6
HFRHWHARDWAREVERSION:300 Series Version 2
HFFTYFRTYPE:CAMBRIDGE AERO INSTRUMENTS, 302+
HFGPS:GARMIN,LVS-25,12,18000
HFPRSPRESSALTSENSOR:INTERSEMA, MS5534-AP, 20000
I033638FXA3941ENL4247REX
LCAMSBVER:5FWVER:F26300
C010105000320000105000101
C0000000N00000000WTAKEOFF     
C4003833N10524483WN_ Gold Hill
C3533200N10552300WNM I25SH285 
C4003833N10524483WN_ Gold Hill
C0000000N00000000WLANDING     
B1633274002375N10513989WA0154301620000000000000
B1633294002375N10513989WA0154201620000000000000
B1633314002375N10513989WA0154201620000000000000
B1633334002375N10513989WA0154301620000000000000
B1633354002375N10513989WA0154201620000000000000
B1633374002375N10513989WA0154201620000000000000
B1633394002375N10513989WA0154101620000000000000
B1633414002375N10513989WA0154301620000000000000
B1633434002375N10513989WA0154301620000000000000
B1633454002375N10513989WA0154101620000000000000
B1633474002375N10513989WA0154201620000000000000
B1633494002375N10513989WA0154201620000000000000
B1633514002375N10513989WA0154201619000000000000
B1633534002375N10513989WA0154201619000004000000
B1633554002375N10513983WA0154201619000004000000
B1633584002375N10513965WA0154301619000004000000
B1634024002375N10513926WA0154301619000000000000
B1634064002375N10513872WA0154501619000000000000
B1634104002375N10513804WA0154801619000000000000
B1634144002376N10513723WA0154901619000004000000
B1634184002376N10513632WA0155001619000000000000
B1634224002376N10513531WA0155001620000000000000
B1634264002376N10513424WA0155401627000000000000
B1634304002376N10513317WA0156201638000004000000
B1634344002376N10513212WA0156801650000000000000
B1634384002375N10513104WA0157901661000000000000
B1634424002376N10512998WA0159201671000000000000
B1634464002376N10512892WA0160101680000000000000
B1634504002373N10512787WA0160901691000000000000
B1634544002371N10512680WA0161801701000000000000
B1634584002369N10512574WA0163101713000000000000
B1635024002368N10512467WA0163801725000000000000
B1635064002367N10512358WA0165101734000000000000
B1635104002377N10512251WA0165901744000000000000
B1635144002408N10512154WA0167001756000000000000
B1635184002462N10512072WA0167901767000000000000
B1635224002533N10512013WA0168601773000000000000
B1635264002616N10511984WA0169301782000004000000
B1635304002702N10511985WA0170301793000004000000
B1635344002783N10512017WA0171201803000004000000
B1635384002854N10512082WA0172101813000000000000
B1635424002905N10512173WA0173201822000000000000
B1635464002939N10512280WA0173701829000000000000
B1635504002949N10512392WA0174501838000000000000
B1635544002940N10512504WA0175301847000004000000
B1635584002910N10512606WA0176001855000000000000
B1636024002861N10512696WA0176701862000004000000
B1636064002800N10512769WA0178401873000004000000
B1636104002726N10512821WA0179101880000000000000
B1636144002645N10512852WA0179601887000000000000
B1636184002562N10512871WA0180401897000000000000
B1636224002480N10512886WA0181301906000000000000
B1636264002398N10512896WA0181801913000000000000
B1636304002316N10512907WA0182801923000000000000
B1636344002233N10512914WA0183901934000000000000
B1636384002150N10512921WA0184801943000000000000
B1636424002063N10512926WA0185501948000000000000
B1636464001976N10512930WA0186201956000000000000
B1636504001891N10512931WA0187201968000000000000
B1636544001808N10512925WA0187901979000000000000
B1636584001730N10512894WA0188601988000000000000
B1637024001660N10512835WA0189701995000000000000
B1637064001605N10512753WA0190402001000000000000
B1637104001566N10512654WA0191002011000000000000
B1637144001549N10512549WA0191902023000004000000
B1637184001552N10512439WA0192902031000004000000
B1637224001576N10512333WA0193702040000004000000
B1637264001623N10512237WA0194602049000000000000
B1637304001686N10512159WA0195202056000000000000
B1637344001762N10512101WA0195702064000004000000
B1637384001846N10512065WA0196602073000004000000
B1637424001934N10512055WA0197502082000004000000
B1637464002021N10512072WA0198202091000004000000
B1637504002104N10512112WA0199002100000004000000
B1637544002180N10512172WA0200002108000000000000
B1637584002246N10512249WA0200802117000000000000
B1638024002308N10512332WA0201502125000004000000
B1638064002369N10512418WA0202202133000004000000
B1638104002431N10512505WA0202802142000004000000
B1638144002490N10512592WA0203702152000000000000
B1638184002550N10512679WA0204702163000004000000
B1638224002607N10512766WA0205902175000004000000
B1638264002666N10512851WA0207102190000004000000
B1638304002719N10512933WA0208302205000004000000
B1638344002772N10513017WA0209302212000000000000
B1638384002827N10513103WA0210102220000000000000
B1638424002880N10513190WA0210402226000000000000
B1638464002932N10513280WA0211402238000004000000
B1638504002983N10513369WA0212302247000004000000
B1638544003034N10513458WA0213202254000000000000
B1638584003084N10513547WA0214002264000000000000
B1639024003134N10513637WA0215002275000000000000
B1639064003182N10513727WA0215902283000000000000
B1639104003231N10513818WA0216602292000000000000
B1639144003279N10513910WA0217402302000004000000
B1639184003326N10514001WA0218202311000004000000
B1639224003374N10514095WA0219302318000000000000
B1639264003422N10514187WA0220002327000004000000
B1639304003469N10514282WA0220802336000004000000
B1639344003516N10514373WA0221802347000004000000
B1639384003563N10514468WA0222402353000004000000
B1639424003611N10514561WA0223202363000000000000
B1639464003658N10514654WA0224402374000000000000
B1639504003705N10514747WA0224902381000000000000
B1639544003751N10514842WA0225402388000000000000
B1639584003799N10514937WA0226102395000000000000
B1640024003846N10515032WA0227002405000004000000
B1640064003892N10515128WA0227802413000004000000
B1640104003937N10515224WA0228702421000004000000
B1640144003981N10515321WA0229202430000004000000
B1640184004027N10515417WA0230002438000000000000
B1640224004072N10515514WA0231002445000000000000
B1640264004117N10515613WA0231502454000000000000
B1640304004160N10515712WA0232202464000000000000
B1640344004204N10515809WA0233202473000000000000
B1640384004247N10515908WA0234202482000000000000
B1640424004288N10516007WA0235002491000000000000
B1640464004330N10516107WA0235902501000000000000
B1640504004369N10516206WA0236902512000000000000
B1640544004408N10516306WA0237902521000000000000
B1640584004446N10516406WA0238602531000000000000
B1641024004485N10516506WA0239502540000000000000
B1641064004522N10516606WA0240502550000000000000
B1641104004560N10516705WA0241302560000000000000
B1641144004596N10516804WA0242302569000000000000
B1641184004634N10516901WA0242902578000000000000
B1641224004673N10517000WA0243802584000000000000
B1641264004709N10517099WA0244602594000000000000
B1641304004747N10517197WA0245402602000000000000
B1641344004784N10517297WA0246102610000004000000
B1641384004821N10517395WA0246902619000000000000
B1641424004855N10517496WA0247902629000000000000
B1641464004890N10517596WA0248502636000004000000
B1641504004927N10517694WA0249302644000004000000
B1641544004963N10517793WA0250102653000004000000
B1641584004999N10517893WA0250602659000004000000
B1642024005034N10517993WA0251502665000000000000
B1642064005071N10518095WA0252002673000004000000
B1642104005107N10518194WA0252702681000004000000
B1642144005145N10518292WA0253502690000004000000
B1642184005180N10518390WA0254202699000000000000
B1642224005216N10518487WA0255102707000000000000
B1642264005252N10518584WA0255802715000000000000
B1642304005291N10518680WA0256302721000000000000
B1642344005328N10518777WA0257202729000000000000
B1642384005359N10518880WA0257902737000000000000
B1642424005383N10518985WA0258702746000000000000
B1642464005397N10519095WA0259402756000000000000
B1642504005406N10519205WA0260502764000000000000
B1642544005409N10519316WA0261002772000000000000
B1642584005408N10519426WA0261902780000000000000
B1643024005404N10519535WA0262602790000004000000
B1643064005398N10519646WA0263602799000004000000
B1643104005393N10519758WA0264402804000004000000
B1643144005389N10519869WA0264902810000004000000
B1643184005385N10519981WA0265702822000004000000
B1643224005379N10520096WA0267102833000004000000
B1643264005376N10520213WA0267802841000004000000
B1643304005372N10520327WA0268802855000004000000
B1643344005371N10520440WA0269602863000004000000
B1643384005370N10520552WA0270402872000004000000
B1643424005369N10520666WA0271102877000004000000
B1643464005369N10520785WA0271602884000000000000
B1643504005371N10520904WA0272402894000000000000
B1643544005372N10521021WA0273402903000004000000
B1643584005375N10521138WA0274302911000004000000
B1644024005378N10521256WA0274602913000004000000
B1644064005380N10521375WA0274802915000004000000
B1644104005383N10521493WA0275102919000000000000
B1644144005387N10521610WA0275602925000000000000
B1644184005391N10521726WA0276302933000000000000
B1644224005395N10521841WA0276802937000004000000
B1644264005398N10521960WA0277202940000000000000
B1644304005404N10522077WA0277502945000000000000
B1644344005410N10522194WA0278002953000004000000
B1644384005415N10522308WA0278702961000004000000
B1644424005421N10522421WA0279302968000004000000
B1644464005423N10522534WA0280202978000004000000
B1644504005426N10522646WA0280902984000004000000
B1644544005430N10522757WA0281602992000004000000
B1644584005435N10522863WA0282102998000004000000
B1645024005441N10522970WA0282703003000004000000
B1645064005447N10523080WA0283003004000004000000
B1645104005452N10523196WA0283203006000004000000
B1645144005465N10523310WA0283603012000004000000
B1645184005487N10523424WA0284303018000004000000
B1645224005519N10523531WA0284603021000004000000
B1645264005562N10523632WA0285203032000004000000
B1645304005613N10523723WA0286503044000004000000
B1645344005666N10523812WA0286803047000000000000
B1645384005727N10523890WA0286903050000000000000
B1645424005794N10523960WA0287903064000004000000
B1645464005863N10524025WA0288903074000004000000
B1645504005935N10524083WA0289703080000004000000
B1645544006011N10524128WA0290103084000004000000
B1645584006087N10524170WA0290303085000004000000
B1646024006167N10524209WA0290403084000000000000
B1646064006247N10524246WA0290503089000000000000
B1646104006327N10524284WA0290803097000000000000
B1646144006407N10524319WA0291403102000000000000
B1646184006488N10524356WA0292003107000000000000
B1646224006570N10524392WA0292603112000000000000
B1646264006650N10524428WA0293303117000000000000
B1646304006731N10524465WA0293703126000000000000
B1646344006812N10524501WA0294403132000000000000
B1646384006891N10524540WA0295103142000004000000
B1646424006969N10524578WA0295703148000000000000
B1646464007046N10524617WA0296303155000000000000
B1646504007125N10524655WA0297003162000000000000
B1646544007205N10524694WA0297803167000004000000
B1646584007286N10524735WA0298603186000004000000
B1647024007363N10524770WA0300803207000004000000
B1647064007438N10524807WA0302803222000004000000
B1647104007512N10524848WA0302803220000000000000
B1647144007588N10524891WA0302803216000004000000
B1647184007663N10524938WA0302503217000000000000
B1647224007738N10524990WA0302503219000000000000
B1647264007811N10525043WA0303303230000000000000
B1647304007875N10525107WA0303903238000000000000
B1647344007933N10525179WA0304703245000004000000
B1647384007979N10525264WA0305503252000004000000
B1647424008014N10525358WA0305803257000000000000
B1647464008032N10525459WA0306403262000000000000
B1647504008037N10525567WA0306603261000004000000
B1647544008026N10525678WA0306403260000004000000
B1647584008000N10525784WA0307003271000004000000
B1648024007957N10525884WA0308203281000004000000
B1648064007901N10525972WA0309403301000004000000
B1648104007848N10526055WA0311203325000004000000
B1648144007829N10526150WA0313503349000004000000
B1648184007853N10526238WA0314503352000004000000
B1648224007913N10526298WA0314003338000004000000
B1648264007988N10526320WA0312803343000000000000
B1648304008054N10526293WA0313203346000004000000
B1648344008096N10526224WA0312803334000004000000
B1648384008095N10526130WA0311603320000000000000
B1648424008045N10526057WA0310503314000000000000
B1648464007975N10526035WA0310003311000000000000
B1648504007901N10526053WA0310703328000000000000
B1648544007835N10526066WA0312803349000000000000
B1648584007779N10526029WA0313603346000000000000
B1649024007764N10525939WA0312503335000004000000
B1649064007813N10525856WA0312403343000004000000
B1649104007889N10525847WA0313503355000004000000
B1649144007948N10525914WA0314303360000000000000
B1649184007959N10526014WA0314803368000000000000
B1649224007927N10526108WA0315503373000000000000
B1649264007866N10526164WA0316603389000004000000
B1649304007798N10526154WA0317703394000004000000
B1649344007772N10526073WA0317603390000004000000
B1649384007816N10525994WA0317603394000004000000
B1649424007896N10525991WA0318403407000004000000
B1649464007954N10526059WA0319803422000004000000
B1649504007970N10526161WA0320603429000004000000
B1649544007932N10526250WA0321403438000004000000
B1649584007862N10526255WA0321803439000004000000
B1650024007823N10526178WA0321903439000004000000
B1650064007845N10526087WA0322503453000004000000
B1650104007911N10526040WA0323703463000000000000
B1650144007985N10526069WA0324703475000000000000
B1650184008028N10526154WA0325403479000004000000
B1650224008021N10526252WA0326303494000004000000
B1650264007972N10526323WA0327503501000004000000
B1650304007902N10526338WA0327503502000004000000
B1650344007846N10526290WA0327803503000000000000
B1650384007828N10526203WA0328103506000004000000
B1650424007866N10526122WA0328203514000000000000
B1650464007941N10526100WA0329003519000000000000
B1650504008011N10526154WA0329903529000000000000
B1650544008032N10526252WA0330803539000000000000
B1650584007988N10526332WA0331603548000000000000
B1651024007919N10526334WA0332403552000000000000
B1651064007876N10526269WA0332703555000000000000
B1651104007884N10526177WA0332503550000004000000
B1651144007943N10526107WA0332603565000004000000
B1651184008018N10526095WA0334303584000000000000
B1651224008079N10526143WA0335503587000000000000
B1651264008110N10526229WA0335703581000000000000
B1651304008101N10526321WA0334603577000004000000
B1651344008056N10526388WA0334403575000000000000
B1651384007991N10526416WA0334303572000000000000
B1651424007922N10526415WA0333903570000000000000
B1651464007853N10526390WA0334003575000000000000
B1651504007788N10526358WA0334303574000000000000
B1651544007722N10526317WA0333803563000000000000
B1651584007649N10526274WA0332803551000004000000
B1652024007573N10526224WA0332203555000000000000
B1652064007504N10526177WA0333603581000000000000
B1652104007439N10526159WA0336103605000000000000
B1652144007378N10526187WA0337303600000004000000
B1652184007315N10526238WA0335803574000004000000
B1652224007234N10526261WA0333703567000004000000
B1652264007150N10526250WA0333603564000000000000
B1652304007066N10526221WA0333003558000004000000
B1652344006990N10526177WA0333203563000004000000
B1652384006917N10526121WA0333403567000004000000
B1652424006844N10526059WA0333803572000000000000
B1652464006775N10525995WA0334403577000000000000
B1652504006702N10525939WA0334403567000000000000
B1652544006622N10525891WA0332303535000004000000
B1652584006533N10525838WA0329003500000004000000
B1653024006441N10525766WA0326103476000004000000
B1653064006350N10525684WA0324103461000004000000
B1653104006258N10525605WA0323403458000004000000
B1653144006164N10525535WA0323603462000000000000
B1653184006073N10525470WA0323603458000000000000
B1653224005983N10525409WA0323103448000004000000
B1653264005890N10525358WA0322303447000004000000
B1653304005798N10525307WA0322603454000004000000
B1653344005707N10525257WA0323103457000004000000
B1653384005613N10525206WA0323203457000004000000
B1653424005519N10525155WA0324303486000004000000
B1653464005437N10525111WA0328203525000004000000
B1653504005361N10525137WA0331403548000000000000
B1653544005320N10525229WA0332403555000004000000
B1653584005340N10525332WA0332403555000000000000
B1654024005402N10525394WA0333203568000000000000
B1654064005474N10525394WA0334603581000000000000
B1654104005517N10525325WA0335103580000000000000
B1654144005504N10525229WA0334803583000000000000
B1654184005441N10525168WA0336303610000000000000
B1654224005365N10525166WA0338303621000000000000
B1654264005302N10525236WA0338503620000004000000
B1654304005291N10525349WA0339403634000004000000
B1654344005326N10525442WA0341003652000000000000
B1654384005392N10525483WA0341503652000004000000
B1654424005460N10525455WA0341903660000000000000
B1654464005491N10525375WA0342903672000004000000
B1654504005476N10525284WA0343503680000000000000
B1654544005419N10525215WA0344403693000004000000
B1654584005339N10525205WA0346203708000004000000
B1655024005271N10525267WA0347003713000004000000
B1655064005255N10525375WA0347203718000004000000
B1655104005300N10525467WA0348303730000004000000
B1655144005372N10525492WA0349503743000004000000
B1655184005431N10525445WA0350703753000004000000
B1655224005450N10525354WA0351203758000004000000
B1655264005418N10525262WA0352003769000004000000
B1655304005343N10525216WA0353203785000004000000
B1655344005262N10525260WA0354603803000004000000
B1655384005232N10525364WA0356303816000000000000
B1655424005265N10525459WA0356903821000000000000
B1655464005337N10525493WA0357803835000004000000
B1655504005402N10525453WA0359303849000004000000
B1655544005426N10525363WA0360303856000004000000
B1655584005393N10525270WA0361003866000004000000
B1656024005315N10525231WA0362303882000000000000
B1656064005239N10525289WA0364503907000004000000
B1656104005219N10525394WA0366103922000004000000
B1656144005261N10525480WA0367003930000000000000
B1656184005333N10525488WA0367903944000004000000
B1656224005387N10525424WA0369203955000000000000
B1656264005387N10525327WA0370303967000000000000
B1656304005335N10525250WA0371503980000000000000
B1656344005253N10525231WA0373003993000000000000
B1656384005176N10525288WA0374204010000000000000
B1656424005144N10525394WA0375704021000000000000
B1656464005162N10525500WA0376404027000000000000
B1656504005222N10525556WA0377004027000000000000
B1656544005293N10525544WA0376904035000000000000
B1656584005343N10525481WA0378204055000000000000
B1657024005359N10525394WA0379604062000004000000
B1657064005330N10525307WA0380204071000000000000
B1657104005258N10525266WA0381204087000000000000
B1657144005177N10525283WA0383304102000000000000
B1657184005112N10525353WA0383904104000000000000
B1657224005084N10525457WA0384204111000004000000
B1657264005099N10525562WA0384904115000004000000
B1657304005150N10525632WA0385404125000004000000
B1657344005218N10525648WA0386204135000004000000
B1657384005276N10525611WA0387404149000004000000
B1657424005314N10525541WA0388404150000004000000
B1657464005313N10525449WA0388104154000004000000
B1657504005275N10525370WA0389404172000000000000
B1657544005214N10525316WA0390504182000004000000
B1657584005138N10525290WA0391704191000004000000
B1658024005059N10525314WA0391704188000004000000
B1658064004997N10525388WA0391504181000004000000
B1658104004985N10525496WA0390904178000004000000
B1658144005025N10525580WA0391504193000004000000
B1658184005085N10525621WA0392904201000000000000
B1658224005148N10525630WA0392804204000004000000
B1658264005207N10525615WA0393304207000000000000
B1658304005255N10525567WA0392904194000004000000
B1658344005272N10525475WA0391704186000004000000
B1658384005254N10525372WA0392104197000004000000
B1658424005214N10525285WA0393404217000004000000
B1658464005164N10525215WA0395004228000004000000
B1658504005107N10525153WA0395204219000000000000
B1658544005038N10525086WA0393404192000000000000
B1658584004962N10525012WA0391404180000004000000
B1659024004890N10524939WA0391204178000004000000
B1659064004808N10524880WA0389104137000004000000
B1659104004706N10524838WA0385204101000004000000
B1659144004591N10524812WA0381704067000004000000
B1659184004470N10524783WA0379104049000004000000
B1659224004349N10524748WA0378604053000004000000
B1659264004231N10524720WA0378704051000004000000
B1659304004113N10524695WA0378404047000004000000
B1659344003993N10524670WA0378004042000004000000
B1659384003875N10524668WA0377504030000004000000
B1659424003755N10524681WA0376004009000004000000
B1659464003629N10524686WA0373903991000000000000
B1659504003499N10524683WA0371803966000000000000
B1659544003367N10524673WA0371203961000000000000
B1659584003237N10524659WA0371803953000004000000
B1700024003105N10524644WA0370803938000004000000
B1700064002971N10524631WA0370003934000004000000
B1700104002841N10524629WA0370003935000004000000
B1700144002714N10524652WA0369803931000004000000
B1700184002596N10524714WA0369303925000004000000
B1700224002488N10524803WA0368403914000004000000
B1700264002382N10524899WA0367203904000004000000
B1700304002269N10524981WA0366703902000004000000
B1700344002148N10525036WA0366303896000004000000
B1700384002021N10525060WA0365803890000004000000
B1700424001891N10525058WA0365003882000004000000
B1700464001760N10525038WA0364403876000004000000
B1700504001630N10525015WA0364303877000004000000
B1700544001501N10524989WA0364303878000004000000
B1700584001375N10524963WA0364303879000004000000
B1701024001249N10524938WA0364303880000004000000
B1701064001123N10524915WA0364403881000004000000
B1701104000999N10524891WA0364303877000004000000
B1701144000874N10524869WA0363503866000004000000
B1701184000746N10524843WA0362003844000004000000
B1701224000613N10524812WA0360703829000004000000
B1701264000479N10524778WA0359703824000004000000
B1701304000347N10524748WA0359503825000004000000
B1701344000215N10524713WA0359603826000004000000
B1701384000088N10524677WA0360003834000004000000
B1701423959964N10524640WA0360503837000004000000
B1701463959842N10524604WA0360603841000004000000
B1701503959725N10524571WA0361403855000004000000
B1701543959615N10524542WA0362003858000004000000
B1701583959504N10524516WA0361803854000004000000
B1702023959392N10524491WA0361003836000004000000
B1702063959273N10524462WA0358803803000004000000
B1702103959145N10524428WA0356603787000004000000
B1702143959017N10524399WA0355503780000004000000
B1702183958885N10524383WA0355003779000004000000
B1702223958761N10524374WA0355903800000004000000
B1702263958645N10524365WA0357503814000004000000
B1702303958533N10524361WA0358203821000004000000
B1702343958427N10524365WA0358503823000000000000
B1702383958320N10524380WA0358403814000004000000
B1702423958208N10524402WA0357303799000004000000
B1702463958096N10524431WA0356403794000000000000
B1702503957987N10524464WA0356103791000004000000
B1702543957881N10524497WA0356003795000004000000
B1702583957779N10524532WA0356503806000004000000
B1703023957682N10524569WA0357303807000000000000
B1703063957583N10524607WA0356503789000004000000
B1703103957475N10524642WA0354703768000004000000
B1703143957362N10524670WA0353303760000004000000
B1703183957249N10524695WA0353103757000004000000
B1703223957134N10524718WA0352103741000004000000
B1703263957015N10524742WA0350603724000004000000
B1703303956893N10524765WA0349603717000000000000
B1703343956769N10524790WA0348603696000004000000
B1703383956642N10524815WA0347203684000004000000
B1703423956513N10524838WA0346303678000000000000
B1703463956386N10524861WA0345803673000004000000
B1703503956258N10524883WA0345203670000004000000
B1703543956131N10524904WA0345403677000004000000
B1703583956010N10524919WA0346403691000004000000
B1704023955893N10524933WA0347303697000004000000
B1704063955777N10524948WA0347203692000004000000
B1704103955661N10524964WA0346503681000004000000
B1704143955544N10524984WA0345603675000004000000
B1704183955427N10524999WA0345003668000004000000
B1704223955309N10525004WA0344303655000004000000
B1704263955188N10524998WA0343303647000004000000
B1704303955069N10524990WA0342703647000004000000
B1704343954950N10524980WA0342603647000004000000
B1704383954835N10524971WA0342603645000004000000
B1704423954719N10524965WA0342503642000004000000
B1704463954603N10524961WA0342003634000004000000
B1704503954488N10524959WA0341103627000004000000
B1704543954372N10524960WA0340403623000004000000
B1704583954256N10524967WA0340103620000004000000
B1705023954143N10524974WA0339903617000004000000
B1705063954031N10524984WA0339603612000004000000
B1705103953919N10524995WA0338903603000004000000
B1705143953806N10525007WA0337903594000004000000
B1705183953693N10525017WA0338303621000004000000
B1705223953601N10525030WA0341903672000004000000
B1705263953522N10525045WA0344903687000004000000
B1705303953446N10525060WA0345403685000004000000
B1705343953372N10525089WA0345103681000000000000
B1705383953299N10525129WA0344503663000004000000
B1705423953211N10525140WA0342003623000000000000
B1705463953108N10525127WA0339003604000000000000
B1705503953003N10525132WA0337903598000000000000
B1705543952899N10525147WA0337403591000000000000
B1705583952792N10525176WA0336903585000000000000
B1706023952688N10525221WA0337303611000000000000
B1706063952596N10525263WA0340403648000000000000
B1706103952513N10525284WA0343203667000000000000
B1706143952436N10525307WA0343703668000004000000
B1706183952363N10525349WA0343303658000004000000
B1706223952285N10525400WA0342803656000004000000
B1706263952207N10525453WA0343103667000004000000
B1706303952135N10525507WA0344203680000004000000
B1706343952067N10525566WA0344903680000004000000
B1706383951998N10525627WA0344503677000000000000
B1706423951929N10525689WA0344503680000004000000
B1706463951858N10525749WA0344703679000004000000
B1706503951784N10525801WA0345003688000004000000
B1706543951712N10525848WA0346203706000004000000
B1706583951642N10525894WA0347303712000004000000
B1707023951565N10525934WA0347703714000000000000
B1707063951485N10525957WA0348303724000000000000
B1707103951404N10525961WA0348603719000000000000
B1707143951318N10525952WA0348303719000000000000
B1707183951235N10525942WA0348603723000000000000
B1707223951153N10525931WA0347503719000000000000
B1707263951066N10525921WA0346603702000000000000
B1707303950971N10525908WA0344703684000000000000
B1707343950872N10525890WA0342903660000000000000
B1707383950763N10525865WA0340003629000004000000
B1707423950647N10525840WA0337803613000004000000
B1707463950529N10525812WA0336303602000004000000
B1707503950413N10525780WA0336103607000004000000
B1707543950298N10525752WA0336103600000004000000
B1707583950179N10525723WA0335103591000004000000
B1708023950062N10525700WA0335403606000004000000
B1708063949952N10525682WA0337203633000004000000
B1708103949853N10525661WA0340103668000004000000
B1708143949766N10525637WA0343203692000004000000
B1708183949683N10525610WA0345003704000004000000
B1708223949603N10525578WA0345703705000004000000
B1708263949525N10525540WA0345003686000004000000
B1708303949446N10525480WA0342203654000004000000
B1708343949367N10525397WA0339903642000004000000
B1708383949291N10525309WA0338803635000004000000
B1708423949216N10525219WA0338603634000004000000
B1708463949137N10525130WA0338703642000004000000
B1708503949056N10525050WA0339403649000004000000
B1708543948976N10524972WA0340103653000000000000
B1708583948892N10524894WA0339503637000000000000
B1709023948805N10524813WA0338003627000000000000
B1709063948708N10524766WA0338203635000004000000
B1709103948608N10524748WA0338303628000004000000
B1709143948506N10524729WA0337803622000004000000
B1709183948409N10524707WA0337703633000004000000
B1709223948319N10524673WA0339103646000004000000
B1709263948242N10524616WA0340403657000004000000
B1709303948173N10524556WA0341203665000004000000
B1709343948108N10524492WA0341803668000000000000
B1709383948047N10524422WA0341603669000004000000
B1709423947994N10524347WA0342403686000004000000
B1709463947945N10524272WA0344003699000004000000
B1709503947895N10524193WA0344803704000004000000
B1709543947843N10524118WA0344903699000004000000
B1709583947785N10524038WA0344503702000004000000
B1710023947728N10523959WA0346203736000004000000
B1710063947686N10523884WA0349703764000004000000
B1710103947687N10523798WA0350703757000000000000
B1710143947737N10523734WA0349003739000000000000
B1710183947811N10523741WA0348503744000000000000
B1710223947861N10523815WA0349003748000000000000
B1710263947872N10523914WA0349903758000000000000
B1710303947829N10523997WA0350903769000004000000
B1710343947759N10524048WA0352303788000000000000
B1710383947683N10524075WA0354403809000000000000
B1710423947609N10524076WA0355803822000000000000
B1710463947547N10524020WA0356503824000004000000
B1710503947536N10523928WA0356703832000004000000
B1710543947579N10523856WA0357503838000004000000
B1710583947647N10523846WA0357703837000004000000
B1711023947708N10523895WA0358003844000004000000
B1711063947744N10523973WA0359003859000004000000
B1711103947760N10524061WA0360803882000004000000
B1711143947750N10524152WA0362403887000004000000
B1711183947703N10524228WA0361803869000004000000
B1711223947624N10524262WA0360603878000004000000
B1711263947549N10524248WA0362303899000004000000
B1711303947492N10524204WA0364003906000004000000
B1711343947443N10524149WA0364203912000004000000
B1711383947400N10524089WA0364503909000004000000
B1711423947360N10524016WA0363403893000004000000
B1711463947322N10523928WA0361903881000004000000
B1711503947289N10523825WA0360603865000000000000
B1711543947266N10523713WA0359803866000004000000
B1711583947270N10523611WA0360303873000000000000
B1712023947318N10523537WA0360103864000000000000
B1712063947392N10523512WA0359403856000000000000
B1712103947468N10523543WA0359003854000000000000
B1712143947530N10523617WA0358503838000000000000
B1712183947578N10523716WA0357403839000000000000
B1712223947617N10523819WA0358203853000004000000
B1712263947655N10523919WA0359103859000004000000
B1712303947692N10524019WA0359803867000004000000
B1712343947729N10524114WA0361303886000004000000
B1712383947763N10524202WA0362803897000000000000
B1712423947795N10524287WA0363203900000004000000
B1712463947832N10524362WA0363903910000004000000
B1712503947872N10524434WA0364603914000004000000
B1712543947911N10524510WA0364103896000004000000
B1712583947947N10524604WA0362203882000004000000
B1713023947976N10524703WA0361703879000000000000
B1713063947988N10524812WA0360703858000000000000
B1713103947973N10524934WA0358103827000000000000
B1713143947932N10525059WA0355403807000000000000
B1713183947869N10525177WA0354003801000000000000
B1713223947795N10525281WA0354703812000000000000
B1713263947720N10525372WA0355903826000000000000
B1713303947643N10525455WA0356803830000000000000
B1713343947561N10525532WA0357403838000000000000
B1713383947483N10525602WA0359303873000004000000
B1713423947412N10525666WA0362303900000004000000
B1713463947343N10525708WA0364603917000000000000
B1713503947273N10525687WA0365503912000000000000
B1713543947232N10525605WA0364103896000004000000
B1713583947248N10525506WA0363503893000004000000
B1714023947313N10525463WA0363303894000000000000
B1714063947383N10525494WA0363803899000000000000
B1714103947419N10525584WA0363703897000004000000
B1714143947413N10525696WA0363303892000000000000
B1714183947375N10525801WA0363703910000004000000
B1714223947327N10525884WA0365703928000004000000
B1714263947270N10525946WA0367003932000004000000
B1714303947204N10525992WA0366703924000004000000
B1714343947128N10526035WA0365503906000000000000
B1714383947044N10526085WA0363303883000004000000
B1714423946951N10526137WA0361803885000004000000
B1714463946862N10526181WA0363003900000004000000
B1714503946776N10526221WA0364503908000000000000
B1714543946693N10526269WA0364603906000004000000
B1714583946608N10526321WA0364103903000004000000
B1715023946525N10526376WA0363903902000004000000
B1715063946443N10526433WA0363703889000004000000
B1715103946353N10526495WA0361603858000004000000
B1715143946256N10526562WA0358803834000004000000
B1715183946155N10526627WA0356903822000004000000
B1715223946053N10526688WA0355903813000000000000
B1715263945950N10526748WA0355103808000000000000
B1715303945850N10526809WA0354903805000004000000
B1715343945750N10526867WA0354803805000000000000
B1715383945651N10526923WA0354803804000000000000
B1715423945554N10526978WA0354603796000000000000
B1715463945453N10527027WA0353603786000000000000
B1715503945346N10527049WA0352503771000000000000
B1715543945237N10527030WA0351403767000000000000
B1715583945148N10526961WA0351403769000000000000
B1716023945108N10526843WA0350903751000000000000
B1716063945126N10526711WA0348403728000004000000
B1716103945191N10526602WA0346803718000000000000
B1716143945278N10526523WA0346303713000000000000
B1716183945376N10526469WA0346103711000000000000
B1716223945476N10526434WA0346103713000000000000
B1716263945576N10526404WA0346103712000004000000
B1716303945676N10526376WA0345803705000000000000
B1716343945776N10526346WA0345203701000000000000
B1716383945874N10526320WA0344803694000000000000
B1716423945973N10526295WA0343803680000000000000
B1716463946077N10526269WA0342203668000000000000
B1716503946182N10526245WA0341703662000000000000
B1716543946285N10526215WA0341303654000000000000
B1716583946387N10526183WA0340303641000000000000
B1717023946491N10526148WA0339003631000000000000
B1717063946595N10526113WA0338303631000004000000
B1717103946697N10526081WA0338903640000004000000
B1717143946792N10526047WA0339903646000000000000
B1717183946886N10526014WA0340003643000004000000
B1717223946981N10525979WA0339403634000004000000
B1717263947079N10525947WA0338803632000004000000
B1717303947176N10525917WA0338803637000004000000
B1717343947271N10525890WA0339603643000004000000
B1717383947366N10525864WA0340203648000000000000
B1717423947458N10525839WA0341103668000000000000
B1717463947543N10525826WA0343503694000000000000
B1717503947620N10525819WA0345803712000004000000
B1717543947694N10525825WA0347503733000004000000
B1717583947756N10525874WA0349003741000004000000
B1718023947783N10525965WA0348903735000004000000
B1718063947760N10526060WA0348703731000000000000
B1718103947696N10526118WA0347803720000000000000
B1718143947617N10526100WA0347103724000004000000
B1718183947561N10526035WA0348703748000000000000
B1718223947529N10525956WA0350403761000000000000
B1718263947516N10525870WA0351103765000000000000
B1718303947526N10525780WA0351403769000004000000
B1718343947566N10525706WA0352303784000004000000
B1718383947633N10525676WA0353803792000004000000
B1718423947704N10525713WA0354003795000004000000
B1718463947730N10525813WA0354503804000004000000
B1718503947679N10525901WA0355603817000000000000
B1718543947599N10525905WA0356903835000000000000
B1718583947548N10525834WA0358403844000000000000
B1719023947547N10525738WA0359103854000004000000
B1719063947592N10525665WA0360303869000004000000
B1719103947664N10525647WA0361503880000004000000
B1719143947730N10525695WA0362403891000004000000
B1719183947752N10525790WA0364303910000004000000
B1719223947716N10525881WA0365103918000004000000
B1719263947646N10525926WA0366403928000000000000
B1719303947573N10525900WA0367403941000000000000
B1719343947529N10525827WA0367903943000000000000
B1719383947530N10525731WA0367803948000000000000
B1719423947568N10525649WA0369203965000004000000
B1719463947630N10525606WA0370303977000000000000
B1719503947703N10525613WA0371503985000000000000
B1719543947764N10525666WA0372703998000000000000
B1719583947782N10525761WA0373404002000000000000
B1720023947741N10525856WA0373504006000000000000
B1720063947664N10525896WA0375104029000004000000
B1720103947594N10525864WA0376804046000000000000
B1720143947559N10525779WA0377904055000000000000
B1720183947579N10525684WA0379104071000000000000
B1720223947639N10525630WA0380804087000000000000
B1720263947712N10525635WA0381504097000000000000
B1720303947770N10525697WA0382704107000000000000
B1720343947791N10525797WA0383404113000000000000
B1720383947763N10525896WA0384504128000004000000
B1720423947696N10525952WA0385504132000000000000
B1720463947617N10525940WA0385604139000000000000
B1720503947562N10525873WA0387104159000000000000
B1720543947546N10525782WA0388704172000000000000
B1720583947565N10525691WA0389804184000000000000
B1721023947617N10525627WA0390404194000000000000
B1721063947687N10525613WA0391404198000000000000
B1721103947755N10525654WA0391804204000004000000
B1721143947802N10525734WA0392704217000004000000
B1721183947821N10525827WA0393304215000004000000
B1721223947798N10525927WA0392604210000000000000
B1721263947739N10526001WA0393004223000000000000
B1721303947669N10526038WA0394104229000000000000
B1721343947592N10526029WA0394104229000000000000
B1721383947525N10525981WA0395104241000004000000
B1721423947478N10525907WA0395604243000000000000
B1721463947461N10525813WA0395204236000004000000
B1721503947482N10525717WA0395104240000004000000
B1721543947535N10525653WA0396004252000000000000
B1721583947604N10525626WA0396704254000004000000
B1722023947682N10525624WA0396704259000000000000
B1722063947756N10525639WA0397904275000000000000
B1722103947825N10525661WA0399504283000000000000
B1722143947894N10525687WA0398904267000004000000
B1722183947973N10525715WA0396604242000004000000
B1722223948063N10525751WA0394604223000004000000
B1722263948159N10525780WA0392904207000000000000
B1722303948259N10525806WA0391704197000000000000
B1722343948359N10525831WA0390604186000000000000
B1722383948459N10525853WA0389904173000000000000
B1722423948561N10525875WA0388604157000000000000
B1722463948667N10525896WA0387104145000000000000
B1722503948770N10525909WA0387604176000004000000
B1722543948859N10525922WA0390604201000000000000
B1722583948939N10525926WA0392504210000000000000
B1723023949020N10525912WA0392504201000000000000
B1723063949104N10525882WA0391404189000000000000
B1723103949194N10525851WA0390304179000004000000
B1723143949294N10525830WA0388804159000000000000
B1723183949402N10525821WA0387004142000004000000
B1723223949512N10525821WA0385804133000004000000
B1723263949623N10525826WA0385004125000004000000
B1723303949733N10525835WA0384704118000004000000
B1723343949845N10525843WA0383404100000004000000
B1723383949961N10525844WA0381704087000004000000
B1723423950078N10525843WA0381104092000004000000
B1723463950187N10525843WA0382904117000000000000
B1723503950287N10525836WA0384904134000004000000
B1723543950383N10525823WA0386004143000004000000
B1723583950478N10525806WA0387304161000004000000
B1724023950562N10525787WA0389904192000000000000
B1724063950634N10525771WA0391704199000000000000
B1724103950711N10525765WA0391604194000000000000
B1724143950792N10525760WA0390504183000000000000
B1724183950877N10525758WA0389604171000000000000
B1724223950970N10525753WA0388304144000000000000
B1724263951076N10525745WA0384704101000000000000
B1724303951192N10525735WA0381704090000000000000
B1724343951304N10525718WA0381404090000000000000
B1724383951413N10525701WA0381104083000000000000
B1724423951522N10525687WA0380304076000000000000
B1724463951630N10525670WA0380204077000000000000
B1724503951735N10525657WA0380404080000004000000
B1724543951842N10525645WA0380104072000004000000
B1724583951947N10525632WA0380504085000004000000
B1725023952045N10525621WA0381504101000004000000
B1725063952137N10525610WA0383204112000000000000
B1725103952227N10525605WA0384304126000000000000
B1725143952314N10525600WA0385904146000000000000
B1725183952393N10525591WA0388204171000000000000
B1725223952466N10525574WA0389804182000000000000
B1725263952535N10525557WA0391404203000000000000
B1725303952593N10525515WA0393304211000000000000
B1725343952621N10525429WA0392604194000000000000
B1725383952593N10525327WA0391204190000000000000
B1725423952526N10525264WA0391404200000000000000
B1725463952452N10525242WA0392804214000000000000
B1725503952383N10525250WA0393304214000000000000
B1725543952313N10525284WA0392804204000000000000
B1725583952246N10525331WA0392904215000000000000
B1726023952185N10525379WA0393804221000000000000
B1726063952136N10525446WA0393404216000004000000
B1726103952102N10525539WA0393304216000000000000
B1726143952099N10525639WA0393704231000000000000
B1726183952129N10525721WA0395204242000000000000
B1726223952185N10525771WA0395604235000004000000
B1726263952259N10525777WA0394504231000000000000
B1726303952333N10525756WA0394904242000004000000
B1726343952401N10525723WA0396504257000000000000
B1726383952461N10525676WA0397804270000004000000
B1726423952521N10525622WA0398804281000000000000
B1726463952582N10525583WA0400204290000004000000
B1726503952651N10525591WA0400404287000004000000
B1726543952697N10525663WA0399604281000000000000
B1726583952690N10525765WA0399704293000000000000
B1727023952638N10525842WA0401304313000000000000
B1727063952565N10525864WA0402904321000000000000
B1727103952496N10525823WA0403504326000000000000
B1727143952456N10525732WA0403904333000000000000
B1727183952463N10525627WA0404704345000004000000
B1727223952514N10525549WA0405704355000000000000
B1727263952582N10525511WA0406904368000000000000
B1727303952652N10525519WA0408204379000000000000
B1727343952707N10525578WA0408704379000000000000
B1727383952723N10525671WA0409304390000000000000
B1727423952696N10525762WA0410304409000000000000
B1727463952640N10525823WA0411704416000000000000
B1727503952566N10525836WA0412204422000004000000
B1727543952499N10525801WA0412604427000004000000
B1727583952457N10525721WA0413004427000000000000
B1728023952454N10525617WA0413304434000000000000
B1728063952484N10525523WA0414104439000000000000
B1728103952538N10525453WA0414804448000000000000
B1728143952600N10525407WA0415604463000000000000
B1728183952664N10525380WA0416904469000000000000
B1728223952734N10525380WA0416904468000000000000
B1728263952798N10525416WA0417404476000000000000
B1728303952835N10525485WA0417904475000004000000
B1728343952830N10525578WA0416804460000004000000
B1728383952783N10525662WA0416104463000004000000
B1728423952720N10525709WA0417504486000004000000
B1728463952647N10525717WA0418804490000004000000
B1728503952575N10525678WA0419104497000000000000
B1728543952525N10525608WA0420004508000000000000
B1728583952502N10525518WA0420704508000000000000
B1729023952517N10525422WA0420204494000000000000
B1729063952574N10525346WA0418804486000000000000
B1729103952651N10525311WA0418604488000000000000
B1729143952730N10525303WA0418804491000000000000
B1729183952803N10525311WA0419804505000000000000
B1729223952869N10525325WA0420104489000000000000
B1729263952948N10525337WA0416704440000004000000
B1729303953046N10525351WA0412304405000004000000
B1729343953154N10525370WA0410704412000004000000
B1729383953258N10525387WA0412204429000004000000
B1729423953360N10525400WA0414104450000000000000
B1729463953455N10525415WA0416204469000000000000
B1729503953545N10525424WA0417704481000004000000
B1729543953635N10525431WA0416704455000004000000
B1729583953737N10525437WA0414104434000004000000
B1730023953847N10525442WA0412904419000004000000
B1730063953958N10525448WA0411804415000000000000
B1730103954069N10525452WA0411704415000000000000
B1730143954179N10525450WA0411804417000000000000
B1730183954286N10525448WA0412104421000004000000
B1730223954390N10525442WA0412404424000004000000
B1730263954494N10525437WA0412404416000004000000
B1730303954601N10525433WA0411404407000004000000
B1730343954709N10525436WA0410904403000000000000
B1730383954815N10525440WA0410504398000000000000
B1730423954920N10525445WA0410204391000000000000
B1730463955028N10525448WA0409304381000000000000
B1730503955136N10525450WA0408204371000004000000
B1730543955244N10525450WA0407504366000000000000
B1730583955352N10525446WA0407004360000004000000
B1731023955460N10525440WA0406104347000004000000
B1731063955570N10525435WA0404704330000004000000
B1731103955684N10525431WA0405604319000004000000
B1731143955801N10525426WA0404804309000004000000
B1731183955920N10525420WA0403904295000004000000
B1731223956044N10525416WA0402804289000004000000
B1731263956167N10525411WA0402304280000000000000
B1731303956291N10525409WA0400804260000000000000
B1731343956419N10525411WA0398404238000004000000
B1731383956552N10525413WA0397304231000000000000
B1731423956681N10525410WA0397204232000004000000
B1731463956804N10525406WA0397204233000000000000
B1731503956926N10525396WA0397104232000000000000
B1731543957047N10525381WA0397004229000004000000
B1731583957169N10525368WA0396404220000004000000
B1732023957293N10525354WA0395504211000004000000
B1732063957415N10525342WA0394604202000000000000
B1732103957539N10525332WA0393404182000000000000
B1732143957662N10525325WA0392004171000000000000
B1732183957786N10525322WA0391204164000004000000
B1732223957907N10525318WA0391104166000004000000
B1732263958026N10525315WA0390704160000004000000
B1732303958148N10525311WA0390204156000004000000
B1732343958269N10525301WA0390304158000004000000
B1732383958390N10525289WA0389904149000000000000
B1732423958511N10525275WA0389004141000000000000
B1732463958631N10525247WA0388604136000000000000
B1732503958750N10525221WA0388004131000000000000
B1732543958871N10525202WA0387504124000000000000
B1732583958992N10525194WA0386704115000004000000
B1733023959114N10525198WA0386004109000004000000
B1733063959236N10525207WA0385704107000004000000
B1733103959357N10525212WA0385404104000004000000
B1733143959477N10525218WA0384904099000004000000
B1733183959597N10525225WA0384304089000004000000
B1733223959719N10525229WA0383204077000000000000
B1733263959842N10525229WA0382304068000000000000
B1733303959966N10525229WA0381404061000000000000
B1733344000088N10525229WA0380904052000000000000
B1733384000211N10525224WA0379804043000000000000
B1733424000334N10525218WA0379204041000000000000
B1733464000453N10525214WA0379204041000000000000
B1733504000570N10525214WA0379104037000000000000
B1733544000689N10525216WA0378304024000000000000
B1733584000808N10525218WA0377304017000004000000
B1734024000926N10525219WA0376704007000004000000
B1734064001047N10525219WA0375703997000004000000
B1734104001166N10525216WA0374903990000004000000
B1734144001283N10525212WA0374203982000004000000
B1734184001398N10525208WA0373303970000004000000
B1734224001514N10525206WA0371603950000004000000
B1734264001632N10525205WA0369803929000004000000
B1734304001753N10525206WA0368403919000004000000
B1734344001873N10525214WA0367903914000004000000
B1734384001994N10525227WA0366703897000004000000
B1734424002117N10525237WA0365403889000004000000
B1734464002238N10525246WA0364903886000004000000
B1734504002356N10525254WA0364703884000004000000
B1734544002473N10525262WA0364703889000004000000
B1734584002585N10525272WA0365203892000004000000
B1735024002694N10525285WA0365103889000000000000
B1735064002802N10525301WA0364603882000000000000
B1735104002912N10525315WA0363303866000000000000
B1735144003025N10525328WA0361603841000000000000
B1735184003142N10525340WA0359703828000000000000
B1735224003259N10525353WA0359403826000000000000
B1735264003374N10525370WA0359403829000000000000
B1735304003491N10525390WA0359003817000004000000
B1735344003607N10525419WA0359003826000000000000
B1735384003716N10525458WA0359203826000000000000
B1735424003822N10525511WA0358603822000000000000
B1735464003923N10525571WA0358203814000000000000
B1735504004026N10525635WA0357303807000000000000
B1735544004128N10525702WA0356703802000000000000
B1735584004230N10525771WA0356703803000000000000
B1736024004332N10525844WA0356103797000004000000
B1736064004435N10525917WA0355303785000000000000
B1736104004540N10525990WA0354203772000000000000
B1736144004646N10526061WA0353103764000000000000
B1736184004752N10526134WA0352403757000000000000
B1736224004859N10526208WA0351603745000000000000
B1736264004968N10526284WA0350403732000000000000
B1736304005080N10526356WA0349703731000000000000
B1736344005190N10526428WA0349803734000000000000
B1736384005298N10526499WA0350003736000000000000
B1736424005405N10526572WA0350203738000000000000
B1736464005510N10526645WA0350003736000000000000
B1736504005614N10526716WA0350003739000000000000
B1736544005716N10526788WA0350003734000000000000
B1736584005821N10526857WA0349603733000000000000
B1737024005924N10526926WA0350303747000000000000
B1737064006021N10526991WA0351203758000000000000
B1737104006113N10527048WA0352703779000000000000
B1737144006197N10527103WA0354303797000000000000
B1737184006275N10527153WA0355303799000000000000
B1737224006354N10527209WA0354003770000000000000
B1737264006446N10527277WA0351003733000000000000
B1737304006548N10527353WA0348803719000000000000
B1737344006649N10527435WA0347803709000000000000
B1737384006752N10527522WA0346403688000000000000
B1737424006854N10527611WA0345803695000000000000
B1737464006949N10527691WA0347303718000000000000
B1737504007039N10527762WA0348603728000000000000
B1737544007125N10527825WA0349003725000000000000
B1737584007218N10527886WA0347903707000000000000
B1738024007317N10527951WA0346503695000004000000
B1738064007416N10528015WA0346203704000000000000
B1738104007511N10528079WA0347303717000000000000
B1738144007603N10528141WA0348203727000000000000
B1738184007692N10528202WA0349603748000000000000
B1738224007761N10528260WA0352803797000000000000
B1738264007814N10528309WA0356203823000000000000
B1738304007865N10528358WA0357103821000000000000
B1738344007922N10528414WA0356703812000000000000
B1738384007982N10528478WA0356803823000000000000
B1738424008037N10528542WA0357403829000000000000
B1738464008096N10528611WA0358003834000000000000
B1738504008157N10528677WA0358703841000000000000
B1738544008222N10528735WA0359303848000000000000
B1738584008291N10528794WA0360103859000000000000
B1739024008356N10528851WA0361403875000000000000
B1739064008416N10528908WA0362303877000000000000
B1739104008482N10528967WA0361603865000000000000
B1739144008555N10529024WA0360803858000000000000
B1739184008632N10529080WA0360403856000000000000
B1739224008706N10529134WA0360603854000000000000
B1739264008782N10529192WA0359303826000000000000
B1739304008866N10529253WA0356603800000000000000
B1739344008953N10529315WA0354803784000000000000
B1739384009046N10529367WA0354403789000000000000
B1739424009141N10529409WA0354803794000000000000
B1739464009235N10529449WA0355603804000000000000
B1739504009324N10529492WA0356403815000004000000
B1739544009412N10529534WA0357703831000004000000
B1739584009493N10529571WA0359303855000004000000
B1740024009568N10529602WA0361003865000004000000
B1740064009640N10529628WA0361003858000004000000
B1740104009717N10529643WA0360203844000000000000
B1740144009803N10529649WA0358503818000000000000
B1740184009899N10529656WA0356403801000000000000
B1740224009995N10529666WA0355903806000000000000
B1740264010086N10529688WA0356003808000000000000
B1740304010164N10529736WA0356703815000000000000
B1740344010220N10529818WA0356903814000000000000
B1740384010242N10529930WA0356503806000000000000
B1740424010225N10530050WA0355903802000000000000
B1740464010184N10530163WA0355803803000000000000
B1740504010128N10530267WA0355903805000000000000
B1740544010069N10530369WA0355703802000004000000
B1740584010015N10530475WA0356303814000000000000
B1741024009964N10530576WA0357603834000000000000
B1741064009916N10530672WA0359403855000000000000
B1741104009864N10530754WA0361203876000000000000
B1741144009805N10530826WA0362803891000000000000
B1741184009735N10530880WA0364603908000000000000
B1741224009657N10530891WA0366403923000000000000
B1741264009592N10530841WA0367503928000000000000
B1741304009569N10530746WA0367303921000000000000
B1741344009597N10530654WA0367003922000000000000
B1741384009664N10530605WA0367203929000000000000
B1741424009739N10530597WA0368103953000000000000
B1741464009812N10530622WA0369903971000000000000
B1741504009872N10530694WA0370403971000000000000
B1741544009894N10530810WA0370403977000000000000
B1741584009868N10530923WA0371703998000000000000
B1742024009803N10531003WA0373604014000000000000
B1742064009720N10531014WA0375104035000000000000
B1742104009656N10530949WA0377304059000000000000
B1742144009647N10530850WA0379104072000004000000
B1742184009694N10530778WA0379704073000004000000
B1742224009770N10530766WA0379804080000000000000
B1742264009844N10530809WA0381304094000000000000
B1742304009899N10530889WA0382404108000000000000
B1742344009924N10530996WA0383404117000004000000
B1742384009915N10531113WA0384404128000004000000
B1742424009872N10531218WA0386104149000004000000
B1742464009795N10531270WA0388104170000004000000
B1742504009718N10531246WA0389304178000004000000
B1742544009681N10531164WA0390604191000000000000
B1742584009705N10531074WA0391804209000000000000
B1743024009777N10531040WA0393704227000000000000
B1743064009851N10531087WA0395304247000000000000
B1743104009890N10531187WA0397104263000004000000
B1743144009876N10531305WA0397804273000004000000
B1743184009809N10531391WA0399004289000004000000
B1743224009718N10531404WA0400404297000004000000
B1743264009644N10531343WA0401004303000004000000
B1743304009617N10531246WA0401704313000000000000
B1743344009644N10531155WA0403204331000000000000
B1743384009707N10531101WA0404704350000000000000
B1743424009786N10531108WA0406604367000004000000
B1743464009847N10531183WA0408104380000004000000
B1743504009860N10531299WA0409304394000004000000
B1743544009816N10531402WA0410304407000004000000
B1743584009737N10531455WA0411504421000004000000
B1744024009656N10531445WA0412604430000004000000
B1744064009595N10531380WA0413304433000000000000
B1744104009569N10531287WA0414204443000000000000
B1744144009573N10531192WA0414604442000004000000
B1744184009613N10531109WA0414104436000000000000
B1744224009686N10531061WA0414304446000004000000
B1744264009769N10531062WA0415404457000004000000
B1744304009843N10531109WA0416204464000004000000
B1744344009900N10531190WA0417104479000000000000
B1744384009928N10531291WA0418304487000004000000
B1744424009912N10531400WA0419004495000004000000
B1744464009852N10531480WA0420004509000004000000
B1744504009770N10531491WA0421504524000004000000
B1744544009708N10531435WA0423104543000000000000
B1744584009696N10531342WA0424604551000000000000
B1745024009739N10531260WA0425404562000004000000
B1745064009812N10531224WA0426804581000000000000
B1745104009889N10531240WA0428104596000000000000
B1745144009950N10531311WA0429004594000000000000
B1745184009981N10531419WA0428604594000000000000
B1745224009973N10531533WA0429004604000004000000
B1745264009930N10531627WA0430404621000004000000
B1745304009860N10531682WA0432104637000004000000
B1745344009782N10531695WA0433104647000004000000
B1745384009713N10531663WA0433704649000000000000
B1745424009670N10531589WA0434304656000000000000
B1745464009674N10531500WA0435204666000000000000
B1745504009729N10531437WA0436504683000000000000
B1745544009805N10531425WA0437404697000000000000
B1745584009878N10531477WA0438704709000000000000
B1746024009921N10531572WA0440204730000000000000
B1746064009925N10531681WA0442004742000004000000
B1746104009891N10531785WA0442704751000000000000
B1746144009829N10531855WA0443804763000000000000
B1746184009752N10531883WA0444104758000004000000
B1746224009675N10531866WA0443204744000000000000
B1746264009617N10531801WA0441704728000000000000
B1746304009595N10531703WA0441404738000000000000
B1746344009597N10531608WA0444004771000000000000
B1746384009614N10531529WA0446704792000000000000
B1746424009646N10531456WA0447504794000000000000
B1746464009696N10531386WA0447204792000000000000
B1746504009764N10531334WA0448004810000004000000
B1746544009837N10531312WA0449604826000004000000
B1746584009912N10531329WA0450504824000000000000
B1747024009976N10531399WA0449904822000004000000
B1747064009999N10531502WA0450404826000004000000
B1747104009976N10531604WA0450704830000004000000
B1747144009916N10531676WA0451404840000004000000
B1747184009841N10531692WA0452904863000004000000
B1747224009776N10531651WA0454704876000004000000
B1747264009746N10531568WA0455104876000004000000
B1747304009765N10531473WA0455104877000004000000
B1747344009829N10531417WA0455604884000004000000
B1747384009909N10531429WA0456304890000004000000
B1747424009967N10531508WA0456504892000004000000
B1747464009984N10531619WA0456704892000000000000
B1747504009954N10531725WA0456904900000004000000
B1747544009887N10531792WA0458504919000000000000
B1747584009815N10531811WA0459904930000004000000
B1748024009743N10531784WA0460504933000004000000
B1748064009698N10531703WA0460804938000004000000
B1748104009691N10531603WA0462704963000004000000
B1748144009714N10531511WA0464204975000004000000
B1748184009781N10531458WA0464504974000000000000
B1748224009863N10531447WA0464504976000004000000
B1748264009945N10531461WA0464904980000004000000
B1748304010026N10531463WA0464704974000004000000
B1748344010115N10531448WA0463404954000004000000
B1748384010210N10531430WA0461604938000004000000
B1748424010314N10531412WA0458904898000000000000
B1748464010432N10531394WA0454904864000000000000
B1748504010559N10531376WA0453104846000000000000
B1748544010691N10531359WA0451704831000004000000
B1748584010825N10531339WA0450204819000000000000
B1749024010960N10531317WA0448904804000000000000
B1749064011098N10531296WA0447704792000004000000
B1749104011235N10531279WA0447004788000004000000
B1749144011373N10531266WA0446404778000004000000
B1749184011511N10531252WA0445704773000000000000
B1749224011648N10531237WA0445404774000004000000
B1749264011780N10531221WA0445504776000004000000
B1749304011911N10531208WA0445704772000004000000
B1749344012041N10531195WA0444804761000000000000
B1749384012174N10531185WA0443404749000000000000
B1749424012307N10531178WA0442604743000000000000
B1749464012438N10531174WA0441904737000000000000
B1749504012568N10531170WA0441504729000000000000
B1749544012699N10531172WA0440404719000000000000
B1749584012829N10531172WA0440204720000000000000
B1750024012954N10531153WA0440204718000004000000
B1750064013078N10531122WA0439804713000004000000
B1750104013201N10531095WA0438904699000000000000
B1750144013330N10531077WA0437704686000000000000
B1750184013460N10531074WA0437004683000000000000
B1750224013587N10531083WA0436804684000004000000
B1750264013712N10531104WA0437104688000000000000
B1750304013834N10531123WA0437604693000000000000
B1750344013954N10531136WA0437904699000000000000
B1750384014072N10531149WA0438104702000000000000
B1750424014188N10531162WA0438804708000004000000
B1750464014303N10531178WA0439204710000000000000
B1750504014417N10531194WA0438904705000000000000
B1750544014530N10531211WA0438504699000000000000
B1750584014644N10531229WA0438004695000000000000
B1751024014757N10531243WA0438004699000004000000
B1751064014866N10531253WA0438204702000000000000
B1751104014974N10531263WA0438504702000000000000
B1751144015082N10531270WA0438504701000004000000
B1751184015189N10531281WA0438204696000004000000
B1751224015294N10531289WA0437804691000004000000
B1751264015397N10531296WA0437404684000000000000
B1751304015496N10531272WA0437104686000004000000
B1751344015589N10531231WA0437404691000000000000
B1751384015680N10531188WA0437104676000000000000
B1751424015776N10531136WA0434704653000004000000
B1751464015878N10531084WA0434004652000004000000
B1751504015980N10531036WA0433904645000000000000
B1751544016090N10530999WA0433504647000000000000
B1751584016199N10530979WA0434704675000000000000
B1752024016296N10530962WA0437604712000000000000
B1752064016380N10530947WA0440604729000000000000
B1752104016464N10530940WA0440504704000000000000
B1752144016556N10530970WA0437504674000000000000
B1752184016651N10531027WA0435704660000000000000
B1752224016747N10531096WA0433504629000004000000
B1752264016853N10531175WA0430904612000004000000
B1752304016958N10531252WA0430504623000004000000
B1752344017059N10531320WA0431704634000004000000
B1752384017162N10531377WA0432604642000000000000
B1752424017261N10531432WA0434104667000000000000
B1752464017348N10531489WA0437104703000000000000
B1752504017422N10531543WA0439804727000000000000
B1752544017495N10531589WA0441104728000004000000
B1752584017577N10531621WA0440004705000000000000
B1753024017673N10531637WA0437804683000000000000
B1753064017776N10531627WA0436204673000004000000
B1753104017878N10531598WA0435704672000000000000
B1753144017976N10531564WA0436104677000004000000
B1753184018075N10531526WA0435304653000000000000
B1753224018184N10531485WA0433604648000000000000
B1753264018289N10531442WA0434504664000000000000
B1753304018389N10531398WA0435204658000000000000
B1753344018496N10531350WA0432704617000000000000
B1753384018617N10531302WA0429504595000000000000
B1753424018743N10531259WA0428004584000004000000
B1753464018870N10531214WA0427404574000004000000
B1753504018998N10531169WA0426104564000004000000
B1753544019125N10531126WA0425804562000000000000
B1753584019251N10531084WA0425004549000000000000
B1754024019379N10531040WA0423904542000000000000
B1754064019503N10530999WA0423804545000004000000
B1754104019626N10530958WA0424104545000004000000
B1754144019748N10530922WA0423804541000004000000
B1754184019867N10530887WA0423604538000004000000
B1754224019988N10530853WA0423204534000004000000
B1754264020108N10530817WA0422904534000004000000
B1754304020225N10530774WA0422904534000004000000
B1754344020338N10530726WA0423204537000004000000
B1754384020449N10530675WA0423404533000004000000
B1754424020560N10530624WA0421204509000004000000
B1754464020677N10530572WA0419704491000004000000
B1754504020793N10530524WA0419004495000004000000
B1754544020906N10530481WA0420004508000004000000
B1754584021013N10530441WA0422304545000000000000
B1755024021101N10530401WA0426404593000004000000
B1755064021175N10530358WA0430104620000004000000
B1755104021248N10530320WA0432004635000004000000
B1755144021317N10530282WA0433804653000000000000
B1755184021379N10530236WA0435704669000000000000
B1755224021412N10530147WA0435704661000004000000
B1755264021395N10530042WA0435504665000000000000
B1755304021336N10529973WA0436604679000004000000
B1755344021262N10529959WA0437104681000004000000
B1755384021193N10530005WA0436604667000004000000
B1755424021158N10530107WA0435304659000004000000
B1755464021167N10530225WA0435204669000004000000
B1755504021216N10530325WA0436504683000000000000
B1755544021279N10530399WA0438504706000004000000
B1755584021348N10530449WA0440204724000004000000
B1756024021424N10530468WA0440904726000004000000
B1756064021504N10530475WA0440404712000004000000
B1756104021596N10530480WA0437904676000004000000
B1756144021706N10530481WA0433404626000000000000
B1756184021828N10530489WA0431104619000000000000
B1756224021946N10530496WA0431204622000000000000
B1756264022063N10530499WA0430804612000000000000
B1756304022181N10530502WA0429804603000000000000
B1756344022300N10530509WA0428904592000000000000
B1756384022419N10530515WA0428404590000000000000
B1756424022540N10530522WA0427904581000000000000
B1756464022661N10530529WA0427304579000000000000
B1756504022782N10530538WA0427204576000000000000
B1756544022904N10530548WA0425804557000000000000
B1756584023030N10530564WA0424504541000000000000
B1757024023158N10530584WA0423204532000004000000
B1757064023286N10530602WA0422204521000000000000
B1757104023415N10530620WA0421304516000000000000
B1757144023543N10530633WA0421304518000000000000
B1757184023666N10530646WA0421704521000000000000
B1757224023787N10530676WA0421504516000000000000
B1757264023907N10530711WA0420904506000000000000
B1757304024029N10530749WA0419704488000000000000
B1757344024151N10530793WA0418604487000000000000
B1757384024268N10530834WA0418604488000000000000
B1757424024384N10530863WA0418504483000000000000
B1757464024499N10530884WA0417604470000000000000
B1757504024620N10530889WA0415904451000000000000
B1757544024742N10530874WA0415704464000000000000
B1757584024853N10530848WA0417804486000004000000
B1758024024956N10530814WA0418404482000004000000
B1758064025056N10530771WA0417804476000004000000
B1758104025155N10530723WA0417904479000004000000
B1758144025255N10530670WA0417904477000004000000
B1758184025352N10530615WA0418404491000004000000
B1758224025446N10530564WA0419904502000004000000
B1758264025538N10530514WA0419704489000004000000
B1758304025638N10530463WA0417404463000004000000
B1758344025746N10530418WA0416504465000004000000
B1758384025853N10530382WA0416904474000004000000
B1758424025959N10530368WA0418204491000000000000
B1758464026061N10530371WA0420804521000004000000
B1758504026153N10530376WA0422804535000004000000
B1758544026245N10530389WA0422604523000000000000
B1758584026344N10530412WA0420404495000000000000
B1759024026453N10530444WA0418804479000000000000
B1759064026568N10530484WA0417804480000000000000
B1759104026681N10530524WA0418104483000000000000
B1759144026793N10530557WA0418004474000000000000
B1759184026910N10530581WA0416604460000000000000
B1759224027030N10530601WA0415304445000000000000
B1759264027154N10530618WA0414004434000000000000
B1759304027277N10530629WA0413204427000004000000
B1759344027402N10530639WA0412404416000004000000
B1759384027527N10530646WA0411704412000004000000
B1759424027652N10530653WA0410704401000004000000
B1759464027777N10530658WA0410004395000004000000
B1759504027901N10530666WA0409104381000004000000
B1759544028029N10530675WA0408104372000004000000
B1759584028158N10530684WA0407004362000004000000
B1800024028285N10530694WA0406004353000004000000
B1800064028411N10530701WA0405604351000004000000
B1800104028535N10530706WA0405504352000004000000
B1800144028654N10530711WA0406004359000000000000
B1800184028769N10530720WA0406504359000000000000
B1800224028884N10530730WA0405404336000000000000
B1800264029006N10530748WA0402604315000000000000
B1800304029129N10530769WA0402404327000000000000
B1800344029240N10530780WA0404604351000000000000
B1800384029341N10530783WA0406704371000000000000
B1800424029435N10530784WA0408104379000000000000
B1800464029529N10530792WA0408204379000000000000
B1800504029625N10530821WA0408204376000000000000
B1800544029723N10530871WA0407904373000000000000
B1800584029816N10530936WA0408304383000000000000
B1801024029901N10531010WA0409504403000000000000
B1801064029974N10531084WA0411804424000000000000
B1801104030039N10531160WA0413204430000000000000
B1801144030102N10531238WA0412704421000000000000
B1801184030175N10531318WA0411104401000004000000
B1801224030264N10531390WA0409104382000004000000
B1801264030360N10531454WA0408504384000004000000
B1801304030456N10531520WA0409404399000004000000
B1801344030546N10531586WA0410904420000004000000
B1801384030630N10531650WA0412704433000004000000
B1801424030715N10531710WA0413004420000004000000
B1801464030803N10531762WA0410704392000000000000
B1801504030898N10531812WA0407804356000004000000
B1801544031001N10531870WA0404204318000004000000
B1801584031111N10531928WA0400604282000000000000
B1802024031228N10531989WA0397804257000000000000
B1802064031346N10532052WA0396304251000000000000
B1802104031461N10532115WA0396704261000000000000
B1802144031569N10532176WA0397404264000000000000
B1802184031675N10532236WA0397204259000000000000
B1802224031781N10532292WA0396904258000004000000
B1802264031885N10532347WA0396404245000004000000
B1802304031995N10532407WA0394304219000000000000
B1802344032111N10532469WA0392904217000000000000
B1802384032223N10532531WA0393904238000000000000
B1802424032328N10532589WA0395804256000000000000
B1802464032429N10532647WA0397004265000000000000
B1802504032528N10532703WA0397604271000000000000
B1802544032624N10532759WA0398104273000000000000
B1802584032723N10532815WA0397704261000000000000
B1803024032827N10532873WA0396504251000000000000
B1803064032931N10532927WA0396004250000000000000
B1803104033035N10532975WA0395904249000000000000
B1803144033139N10533019WA0395804247000000000000
B1803184033243N10533058WA0395704246000000000000
B1803224033345N10533097WA0395504241000000000000
B1803264033449N10533133WA0395004234000000000000
B1803304033556N10533168WA0394104226000004000000
B1803344033662N10533207WA0394104234000000000000
B1803384033761N10533248WA0395504253000000000000
B1803424033854N10533287WA0396704255000000000000
B1803464033949N10533327WA0396404251000000000000
B1803504034047N10533367WA0396104250000000000000
B1803544034145N10533408WA0395804244000000000000
B1803584034247N10533443WA0395304241000004000000
B1804024034348N10533476WA0395304243000000000000
B1804064034446N10533510WA0395404243000000000000
B1804104034544N10533545WA0395004231000000000000
B1804144034645N10533577WA0393604212000000000000
B1804184034749N10533597WA0392004198000000000000
B1804224034854N10533605WA0391204197000000000000
B1804264034958N10533610WA0391304202000004000000
B1804304035058N10533621WA0392704224000000000000
B1804344035149N10533631WA0394604243000004000000
B1804384035236N10533645WA0395704245000000000000
B1804424035326N10533661WA0395404237000000000000
B1804464035419N10533674WA0394904233000000000000
B1804504035513N10533682WA0394404228000004000000
B1804544035607N10533682WA0393804218000000000000
B1804584035704N10533677WA0392904209000000000000
B1805024035803N10533674WA0392204201000004000000
B1805064035906N10533673WA0391204192000004000000
B1805104036011N10533674WA0390504188000004000000
B1805144036116N10533678WA0390104178000004000000
B1805184036224N10533684WA0389004165000004000000
B1805224036333N10533690WA0387804153000004000000
B1805264036445N10533695WA0386504140000004000000
B1805304036556N10533699WA0385404127000004000000
B1805344036669N10533704WA0384004115000004000000
B1805384036782N10533707WA0383204111000004000000
B1805424036894N10533707WA0382904106000004000000
B1805464037005N10533704WA0382004095000004000000
B1805504037118N10533700WA0381404090000004000000
B1805544037228N10533691WA0381104089000004000000
B1805584037336N10533681WA0381004090000004000000
B1806024037440N10533666WA0381104086000004000000
B1806064037545N10533649WA0380504077000000000000
B1806104037650N10533630WA0379504067000004000000
B1806144037755N10533610WA0378804058000000000000
B1806184037863N10533592WA0377704041000004000000
B1806224037974N10533575WA0376104031000000000000
B1806264038086N10533560WA0375704033000000000000
B1806304038196N10533545WA0376104037000000000000
B1806344038304N10533528WA0376304041000000000000
B1806384038409N10533514WA0377404059000000000000
B1806424038506N10533504WA0379304076000000000000
B1806464038597N10533496WA0380304079000000000000
B1806504038686N10533487WA0380304078000000000000
B1806544038775N10533480WA0380404082000004000000
B1806584038862N10533476WA0380704085000004000000
B1807024038948N10533469WA0380904085000004000000
B1807064039035N10533457WA0380604078000004000000
B1807104039124N10533441WA0379704069000004000000
B1807144039217N10533422WA0379004059000004000000
B1807184039313N10533395WA0377804044000004000000
B1807224039412N10533363WA0376304031000004000000
B1807264039513N10533335WA0375404021000004000000
B1807304039618N10533311WA0374204008000000000000
B1807344039724N10533288WA0373404005000000000000
B1807384039829N10533265WA0373504008000004000000
B1807424039932N10533241WA0374004019000004000000
B1807464040029N10533223WA0375404032000004000000
B1807504040123N10533207WA0376204038000004000000
B1807544040216N10533193WA0376304037000004000000
B1807584040310N10533176WA0376304036000004000000
B1808024040405N10533155WA0376104032000004000000
B1808064040500N10533133WA0375904031000004000000
B1808104040595N10533111WA0375804027000004000000
B1808144040692N10533083WA0374504005000004000000
B1808184040796N10533049WA0372503987000000000000
B1808224040904N10533012WA0371503983000004000000
B1808264041009N10532972WA0371203981000004000000
B1808304041112N10532925WA0371103979000000000000
B1808344041213N10532876WA0370703974000004000000
B1808384041314N10532820WA0370203963000000000000
B1808424041416N10532763WA0368803951000004000000
B1808464041524N10532717WA0367803944000000000000
B1808504041633N10532685WA0367303934000004000000
B1808544041746N10532656WA0366303926000004000000
B1808584041860N10532631WA0365903926000000000000
B1809024041970N10532613WA0366203929000004000000
B1809064042079N10532600WA0366103924000004000000
B1809104042188N10532590WA0365603918000004000000
B1809144042296N10532579WA0365303920000004000000
B1809184042400N10532566WA0365603920000004000000
B1809224042504N10532553WA0365603923000004000000
B1809264042606N10532543WA0366003927000004000000
B1809304042707N10532537WA0366303929000000000000
B1809344042807N10532533WA0366303929000004000000
B1809384042905N10532534WA0366203924000004000000
B1809424043005N10532539WA0365203907000004000000
B1809464043110N10532547WA0363803902000004000000
B1809504043214N10532561WA0364603920000004000000
B1809544043310N10532582WA0366303940000000000000
B1809584043401N10532602WA0367903952000000000000
B1810024043490N10532620WA0368103945000000000000
B1810064043581N10532631WA0367103927000000000000
B1810104043678N10532638WA0364803896000000000000
B1810144043785N10532644WA0362903898000004000000
B1810184043886N10532655WA0363903907000004000000
B1810224043985N10532667WA0364603916000004000000
B1810264044080N10532678WA0365603929000004000000
B1810304044171N10532691WA0366803940000004000000
B1810344044261N10532706WA0367903950000004000000
B1810384044348N10532719WA0368503957000004000000
B1810424044434N10532729WA0369003959000004000000
B1810464044519N10532739WA0368903956000004000000
B1810504044606N10532750WA0368703955000004000000
B1810544044694N10532761WA0368703955000004000000
B1810584044779N10532778WA0368403950000004000000
B1811024044866N10532793WA0368003942000004000000
B1811064044956N10532804WA0366903929000000000000
B1811104045050N10532815WA0366203925000004000000
B1811144045143N10532828WA0365803922000004000000
B1811184045236N10532833WA0365503917000004000000
B1811224045331N10532825WA0364903908000000000000
B1811264045432N10532815WA0364303908000004000000
B1811304045531N10532804WA0365003922000000000000
B1811344045623N10532798WA0366403938000000000000
B1811384045708N10532795WA0368203960000000000000
B1811424045782N10532807WA0370603979000004000000
B1811464045845N10532854WA0371103974000000000000
B1811504045883N10532943WA0369903958000004000000
B1811544045877N10533057WA0368403940000000000000
B1811584045819N10533149WA0367103935000000000000
B1812024045743N10533201WA0367803952000000000000
B1812064045671N10533211WA0369003961000000000000
B1812104045610N10533181WA0369003955000000000000
B1812144045570N10533114WA0368103941000000000000
B1812184045571N10533019WA0366903926000000000000
B1812224045611N10532928WA0366103930000000000000
B1812264045665N10532854WA0366903939000000000000
B1812304045721N10532785WA0367203937000000000000
B1812344045780N10532719WA0366603923000000000000
B1812384045848N10532646WA0364203890000004000000
B1812424045925N10532566WA0361703871000004000000
B1812464046003N10532483WA0360303861000004000000
B1812504046077N10532396WA0359503848000004000000
B1812544046153N10532303WA0357703830000004000000
B1812584046231N10532208WA0356703817000000000000
B1813024046304N10532108WA0355503812000004000000
B1813064046367N10532001WA0355303809000000000000
B1813104046428N10531898WA0354903800000000000000
B1813144046491N10531798WA0353903789000000000000
B1813184046560N10531702WA0352903782000000000000
B1813224046631N10531606WA0352503779000000000000
B1813264046696N10531506WA0352003772000000000000
B1813304046762N10531404WA0351503768000000000000
B1813344046828N10531302WA0351403769000000000000
B1813384046892N10531199WA0351503772000000000000
B1813424046954N10531096WA0351803778000000000000
B1813464047018N10531004WA0353403808000000000000
B1813504047076N10530925WA0356703837000004000000
B1813544047134N10530856WA0358903855000004000000
B1813584047203N10530811WA0360103863000000000000
B1814024047284N10530818WA0360103858000000000000
B1814064047353N10530887WA0359803858000000000000
B1814104047381N10530996WA0360003860000000000000
B1814144047356N10531104WA0360203863000000000000
B1814184047296N10531175WA0360403863000000000000
B1814224047221N10531198WA0360303861000000000000
B1814264047144N10531178WA0360003858000000000000
B1814304047075N10531127WA0360003861000000000000
B1814344047022N10531056WA0360703873000000000000
B1814384046979N10530977WA0361703885000000000000
B1814424046952N10530889WA0362603890000000000000
B1814464046940N10530797WA0362703888000000000000
B1814504046943N10530701WA0362403885000000000000
B1814544046958N10530605WA0362003882000000000000
B1814584046989N10530510WA0361703875000000000000
B1815024047037N10530420WA0361103868000000000000
B1815064047096N10530334WA0360303860000000000000
B1815104047162N10530251WA0359403849000000000000
B1815144047235N10530171WA0358603851000000000000
B1815184047307N10530102WA0360303876000000000000
B1815224047379N10530056WA0362303886000000000000
B1815264047457N10530048WA0362403885000000000000
B1815304047526N10530100WA0362303882000000000000
B1815344047564N10530202WA0361203867000000000000
B1815384047560N10530317WA0360103862000000000000
B1815424047515N10530403WA0360403867000000000000
B1815464047447N10530431WA0360603867000000000000
B1815504047386N10530390WA0360103853000000000000
B1815544047353N10530297WA0358803847000000000000
B1815584047359N10530190WA0359203857000004000000
B1816024047373N10530091WA0360003859000000000000
B1816064047386N10529995WA0359503853000000000000
B1816104047405N10529895WA0358803846000004000000
B1816144047426N10529791WA0358403842000004000000
B1816184047451N10529683WA0357903838000000000000
B1816224047478N10529573WA0357503836000000000000
B1816264047507N10529459WA0357703840000004000000
B1816304047535N10529348WA0358103844000000000000
B1816344047568N10529240WA0358803858000000000000
B1816384047616N10529155WA0360603878000000000000
B1816424047685N10529114WA0361803878000000000000
B1816464047763N10529128WA0361203868000000000000
B1816504047830N10529199WA0360403865000000000000
B1816544047853N10529305WA0360903876000000000000
B1816584047825N10529404WA0362003886000000000000
B1817024047764N10529466WA0362803889000000000000
B1817064047687N10529480WA0361903876000000000000
B1817104047609N10529435WA0360803867000000000000
B1817144047557N10529345WA0360903876000004000000
B1817184047542N10529245WA0362103893000000000000
B1817224047534N10529151WA0363803911000000000000
B1817264047539N10529063WA0365003914000000000000
B1817304047582N10528998WA0365003916000000000000
B1817344047651N10528982WA0365603923000004000000
B1817384047716N10529025WA0366103928000004000000
B1817424047752N10529116WA0366303930000004000000
B1817464047747N10529220WA0366603932000000000000
B1817504047700N10529306WA0367003938000000000000
B1817544047628N10529354WA0367403942000000000000
B1817584047546N10529355WA0367503942000000000000
B1818024047472N10529313WA0367603947000000000000
B1818064047422N10529233WA0368003951000000000000
B1818104047405N10529136WA0368503955000000000000
B1818144047413N10529038WA0369003962000000000000
B1818184047433N10528949WA0369703971000000000000
B1818224047455N10528864WA0370403976000000000000
B1818264047479N10528782WA0370903981000000000000
B1818304047509N10528704WA0371303986000000000000
B1818344047543N10528629WA0371503985000000000000
B1818384047578N10528555WA0371503990000000000000
B1818424047616N10528482WA0372103993000000000000
B1818464047658N10528413WA0372103990000000000000
B1818504047708N10528348WA0371603982000000000000
B1818544047767N10528291WA0370903976000000000000
B1818584047834N10528243WA0370303970000000000000
B1819024047907N10528202WA0369903970000004000000
B1819064047981N10528172WA0370303972000004000000
B1819104048059N10528156WA0370403975000000000000
B1819144048139N10528141WA0370903980000000000000
B1819184048214N10528131WA0371603984000000000000
B1819224048289N10528120WA0371403980000004000000
B1819264048367N10528110WA0370703972000004000000
B1819304048447N10528101WA0370103968000004000000
B1819344048530N10528093WA0369503957000004000000
B1819384048616N10528080WA0368403946000004000000
B1819424048704N10528070WA0367803945000004000000
B1819464048792N10528061WA0368103949000000000000
B1819504048881N10528052WA0367903940000000000000
B1819544048973N10528041WA0366803930000000000000
B1819584049065N10528032WA0366803935000000000000
B1820024049155N10528033WA0367203935000000000000
B1820064049245N10528040WA0366903932000000000000
B1820104049337N10528055WA0366503928000004000000
B1820144049426N10528080WA0366303924000000000000
B1820184049515N10528111WA0366203926000004000000
B1820224049602N10528150WA0366403932000000000000
B1820264049686N10528195WA0367003939000000000000
B1820304049764N10528241WA0367603941000000000000
B1820344049843N10528291WA0367503935000000000000
B1820384049925N10528343WA0366603926000000000000
B1820424050008N10528397WA0366103922000000000000
B1820464050094N10528453WA0365303911000000000000
B1820504050180N10528512WA0364603909000000000000
B1820544050265N10528568WA0364603910000000000000
B1820584050352N10528622WA0364603907000000000000
B1821024050437N10528678WA0364303911000000000000
B1821064050518N10528733WA0365703928000000000000
B1821104050592N10528785WA0367303941000000000000
B1821144050663N10528832WA0367503935000000000000
B1821184050740N10528874WA0365703907000000000000
B1821224050830N10528915WA0362403876000000000000
B1821264050927N10528950WA0361203871000000000000
B1821304051023N10528982WA0361303876000000000000
B1821344051116N10529015WA0361903883000000000000
B1821384051204N10529046WA0362303884000000000000
B1821424051292N10529077WA0362403884000000000000
B1821464051381N10529106WA0362303884000000000000
B1821504051469N10529132WA0362403883000000000000
B1821544051559N10529155WA0362003878000000000000
B1821584051650N10529175WA0361603876000000000000
B1822024051741N10529192WA0361203871000000000000
B1822064051832N10529212WA0361103874000000000000
B1822104051920N10529235WA0361403875000000000000
B1822144052011N10529261WA0360903863000000000000
B1822184052106N10529284WA0360203862000000000000
B1822224052201N10529305WA0360603867000000000000
B1822264052295N10529323WA0360403861000004000000
B1822304052392N10529345WA0359703854000000000000
B1822344052490N10529367WA0359303853000004000000
B1822384052588N10529389WA0359003845000004000000
B1822424052690N10529411WA0357903835000004000000
B1822464052791N10529435WA0357603837000004000000
B1822504052889N10529463WA0357903841000004000000
B1822544052982N10529497WA0358203843000004000000
B1822584053073N10529534WA0358103839000004000000
B1823024053164N10529573WA0357803835000000000000
B1823064053255N10529615WA0357703839000004000000
B1823104053345N10529662WA0358803856000000000000
B1823144053426N10529709WA0361003889000000000000
B1823184053491N10529756WA0364403918000000000000
B1823224053545N10529804WA0365903915000004000000
B1823264053605N10529853WA0364203892000004000000
B1823304053682N10529898WA0361803867000004000000
B1823344053769N10529942WA0360303859000004000000
B1823384053856N10529979WA0359903856000004000000
B1823424053943N10530016WA0359703854000000000000
B1823464054030N10530052WA0358803838000004000000
B1823504054126N10530087WA0357703834000004000000
B1823544054224N10530120WA0357703837000000000000
B1823584054320N10530151WA0357803836000000000000
B1824024054416N10530184WA0357803843000000000000
B1824064054505N10530215WA0359903876000004000000
B1824104054584N10530241WA0362303889000004000000
B1824144054659N10530268WA0362903893000000000000
B1824184054733N10530306WA0363403899000000000000
B1824224054804N10530353WA0364003903000004000000
B1824264054869N10530408WA0364303908000004000000
B1824304054930N10530468WA0365203921000000000000
B1824344054984N10530531WA0366103925000000000000
B1824384055034N10530603WA0365603908000004000000
B1824424055081N10530692WA0363703890000000000000
B1824464055113N10530793WA0362203874000004000000
B1824504055133N10530905WA0360403856000004000000
B1824544055149N10531027WA0358603839000004000000
B1824584055165N10531152WA0358003842000004000000
B1825024055178N10531274WA0358503843000004000000
B1825064055194N10531394WA0358503845000004000000
B1825104055211N10531510WA0358803848000000000000
B1825144055229N10531623WA0359003847000000000000
B1825184055243N10531738WA0358903849000000000000
B1825224055256N10531854WA0359103850000000000000
B1825264055265N10531967WA0359503857000000000000
B1825304055273N10532076WA0360203863000000000000
B1825344055279N10532184WA0360103856000004000000
B1825384055283N10532296WA0359203845000000000000
B1825424055287N10532413WA0357903826000000000000
B1825464055298N10532537WA0356503812000000000000
B1825504055308N10532663WA0355103799000004000000
B1825544055318N10532789WA0354403798000000000000
B1825584055329N10532912WA0354203796000000000000
B1826024055339N10533034WA0354203795000000000000
B1826064055346N10533155WA0354103795000000000000
B1826104055351N10533275WA0354003795000000000000
B1826144055352N10533393WA0353903792000004000000
B1826184055352N10533509WA0354403809000004000000
B1826224055352N10533610WA0356803831000004000000
B1826264055352N10533701WA0358503846000004000000
B1826304055348N10533786WA0359403851000000000000
B1826344055343N10533868WA0359703853000000000000
B1826384055337N10533952WA0359603854000004000000
B1826424055328N10534038WA0359703857000004000000
B1826464055320N10534124WA0360003860000004000000
B1826504055311N10534207WA0360303860000004000000
B1826544055305N10534292WA0359703847000000000000
B1826584055299N10534388WA0357803825000004000000
B1827024055291N10534501WA0355303800000000000000
B1827064055281N10534615WA0354203790000000000000
B1827104055233N10534708WA0352803774000000000000
B1827144055140N10534731WA0350803742000000000000
B1827184055051N10534666WA0349003745000004000000
B1827224054997N10534559WA0349903755000004000000
B1827264054970N10534440WA0350403756000000000000
B1827304054957N10534312WA0350303753000000000000
B1827344054961N10534184WA0350603764000000000000
B1827384054975N10534061WA0351903778000000000000
B1827424054995N10533941WA0353003790000000000000
B1827464055017N10533826WA0355203814000000000000
B1827504055013N10533721WA0358103845000000000000
B1827544054970N10533642WA0359803859000000000000
B1827584054897N10533610WA0360003857000000000000
B1828024054823N10533640WA0360303868000004000000
B1828064054780N10533718WA0361903888000004000000
B1828104054783N10533807WA0363703905000004000000
B1828144054824N10533877WA0364903910000000000000
B1828184054893N10533909WA0365203916000000000000
B1828224054969N10533891WA0366403933000000000000
B1828264055023N10533826WA0368203954000000000000
B1828304055047N10533733WA0369503961000004000000
B1828344055023N10533635WA0370103968000004000000
B1828384054958N10533571WA0370903976000004000000
B1828424054878N10533571WA0371303982000004000000
B1828464054815N10533631WA0372303997000004000000
B1828504054798N10533723WA0374104017000004000000
B1828544054832N10533805WA0375904032000004000000
B1828584054900N10533846WA0377004042000004000000
B1829024054977N10533827WA0377904056000000000000
B1829064055036N10533761WA0379504072000004000000
B1829104055062N10533664WA0380804087000004000000
B1829144055052N10533564WA0382104097000004000000
B1829184055003N10533479WA0382704099000004000000
B1829224054930N10533434WA0383204112000004000000
B1829264054852N10533428WA0384504126000004000000
B1829304054785N10533467WA0385804140000004000000
B1829344054745N10533543WA0386804146000004000000
B1829384054731N10533635WA0387604162000004000000
B1829424054749N10533723WA0389504179000000000000
B1829464054791N10533792WA0390404180000004000000
B1829504054860N10533833WA0390204181000004000000
B1829544054935N10533839WA0391304199000000000000
B1829584055000N10533796WA0392804215000000000000
B1830024055040N10533721WA0393504211000000000000
B1830064055056N10533616WA0392404199000000000000
B1830104055039N10533506WA0392704214000000000000
B1830144054999N10533417WA0394504234000004000000
B1830174054952N10533371WA0395604244000004000000
B1830224054861N10533345WA0396704253000004000000
B1830264054789N10533369WA0397604263000000000000
B1830304054733N10533422WA0398304270000000000000
B1830344054700N10533504WA0399004279000004000000
B1830384054694N10533595WA0400404298000000000000
B1830424054718N10533679WA0402104307000000000000
B1830464054775N10533739WA0402004306000000000000
B1830504054853N10533742WA0402504317000000000000
B1830544054919N10533683WA0403504332000000000000
B1830584054952N10533587WA0404704341000000000000
B1831024054943N10533479WA0405604348000000000000
B1831064054895N10533389WA0406504359000000000000
B1831104054821N10533340WA0407504373000000000000
B1831144054743N10533348WA0408704382000000000000
B1831184054681N10533409WA0409704390000000000000
B1831224054659N10533504WA0410704405000000000000
B1831264054685N10533595WA0412204419000000000000
B1831304054744N10533656WA0412904426000004000000
B1831344054822N10533677WA0413404430000000000000
B1831384054902N10533651WA0414104442000004000000
B1831424054967N10533586WA0415004450000000000000
B1831464055004N10533487WA0415504452000004000000
B1831504055005N10533372WA0415504450000000000000
B1831544054967N10533265WA0415804457000000000000
B1831584054902N10533185WA0417204472000004000000
B1832024054824N10533149WA0418204484000000000000
B1832064054744N10533158WA0419004490000000000000
B1832104054671N10533202WA0419504493000000000000
B1832144054622N10533284WA0419904503000000000000
B1832184054602N10533382WA0421004518000000000000
B1832224054619N10533476WA0422604533000004000000
B1832264054661N10533556WA0423904546000000000000
B1832304054720N10533616WA0425004556000000000000
B1832344054787N10533664WA0425804562000000000000
B1832384054858N10533703WA0426604573000000000000
B1832424054931N10533709WA0427804586000000000000
B1832464055000N10533670WA0428404585000000000000
B1832504055048N10533587WA0427804576000000000000
B1832544055053N10533476WA0427604578000000000000
B1832584055014N10533379WA0427404571000004000000
B1833024054939N10533320WA0426004560000004000000
B1833064054852N10533314WA0426604575000004000000
B1833104054779N10533357WA0428204590000004000000
B1833144054735N10533443WA0429104598000004000000
B1833184054727N10533547WA0429604603000004000000
B1833224054754N10533644WA0430304614000000000000
B1833264054802N10533725WA0431904628000000000000
B1833304054856N10533790WA0432404630000000000000
B1833344054918N10533851WA0432304625000000000000
B1833384054990N10533904WA0431604612000000000000
B1833424055074N10533946WA0430304603000004000000
B1833464055162N10533967WA0430004605000000000000
B1833504055250N10533983WA0429804602000004000000
B1833544055342N10533985WA0429604603000004000000
B1833584055434N10533976WA0430704615000004000000
B1834024055523N10533961WA0431804627000004000000
B1834064055610N10533941WA0432804638000000000000
B1834104055697N10533912WA0433404638000000000000
B1834144055780N10533861WA0433404645000004000000
B1834184055861N10533808WA0434404654000004000000
B1834224055940N10533764WA0435304661000004000000
B1834264056022N10533735WA0435604665000004000000
B1834304056106N10533714WA0435904668000000000000
B1834344056191N10533699WA0436004665000004000000
B1834384056279N10533670WA0435004648000004000000
B1834424056375N10533631WA0433204632000004000000
B1834464056475N10533584WA0432404624000004000000
B1834504056578N10533535WA0431404605000004000000
B1834544056687N10533482WA0429204586000004000000
B1834584056800N10533427WA0427204562000004000000
B1835024056919N10533367WA0424904538000000000000
B1835064057040N10533302WA0422704521000004000000
B1835104057162N10533232WA0421604511000000000000
B1835144057283N10533158WA0420404497000004000000
B1835184057404N10533085WA0419804492000004000000
B1835224057525N10533015WA0419504489000004000000
B1835264057645N10532946WA0418904482000000000000
B1835304057768N10532876WA0417904471000000000000
B1835344057889N10532803WA0416904462000000000000
B1835384058007N10532725WA0416304459000000000000
B1835424058124N10532643WA0416104453000000000000
B1835464058237N10532557WA0415404445000000000000
B1835504058349N10532464WA0414604439000000000000
B1835544058455N10532366WA0414404435000000000000
B1835584058559N10532264WA0413904431000000000000
B1836024058658N10532158WA0413504425000000000000
B1836064058754N10532050WA0413004418000000000000
B1836104058849N10531940WA0412404413000000000000
B1836144058940N10531824WA0411704406000000000000
B1836184059029N10531706WA0411104401000000000000
B1836224059117N10531586WA0410404390000000000000
B1836264059208N10531465WA0409204377000000000000
B1836304059303N10531344WA0408304371000000000000
B1836344059395N10531221WA0407804369000000000000
B1836384059485N10531096WA0407704368000000000000
B1836424059571N10530970WA0407704368000000000000
B1836464059657N10530847WA0407904369000000000000
B1836504059742N10530724WA0407504364000000000000
B1836544059829N10530601WA0407004357000000000000
B1836584059915N10530475WA0406504350000000000000
B1837024059997N10530345WA0405604345000000000000
B1837064100078N10530215WA0405304342000000000000
B1837104100157N10530086WA0404804333000000000000
B1837144100236N10529953WA0403904323000000000000
B1837184100314N10529822WA0403404319000000000000
B1837224100396N10529696WA0402904315000000000000
B1837264100481N10529575WA0402404307000000000000
B1837304100569N10529456WA0401104296000000000000
B1837344100659N10529336WA0400404288000000000000
B1837384100747N10529215WA0400104286000000000000
B1837424100832N10529094WA0399804285000000000000
B1837464100918N10528976WA0399604281000000000000
B1837504101001N10528858WA0399304278000000000000
B1837544101085N10528742WA0398904272000000000000
B1837584101166N10528622WA0398504263000000000000
B1838024101245N10528496WA0397204251000000000000
B1838064101323N10528367WA0396304243000000000000
B1838104101404N10528240WA0395804239000000000000
B1838144101486N10528118WA0395604238000000000000
B1838184101568N10527998WA0395504236000000000000
B1838224101648N10527879WA0395004231000000000000
B1838264101725N10527758WA0394604229000000000000
B1838304101798N10527634WA0394504224000000000000
B1838344101870N10527511WA0393904216000000000000
B1838384101942N10527386WA0393104209000000000000
B1838424102013N10527261WA0392604207000000000000
B1838464102082N10527136WA0392404203000000000000
B1838504102151N10527012WA0391804196000000000000
B1838544102220N10526887WA0391104187000000000000
B1838584102292N10526763WA0390104179000000000000
B1839024102364N10526642WA0389404172000000000000
B1839064102440N10526523WA0388904167000000000000
B1839104102514N10526404WA0388504162000000000000
B1839144102588N10526287WA0388004159000000000000
B1839184102660N10526170WA0387704154000000000000
B1839224102730N10526051WA0387104145000000000000
B1839264102800N10525929WA0386204135000000000000
B1839304102873N10525808WA0385504129000000000000
B1839344102944N10525688WA0384904124000000000000
B1839384103017N10525570WA0384604119000000000000
B1839424103089N10525453WA0384104112000000000000
B1839464103160N10525335WA0383204102000000000000
B1839504103233N10525216WA0382304094000000000000
B1839544103304N10525095WA0381504086000004000000
B1839584103376N10524976WA0380804080000000000000
B1840024103446N10524856WA0380304073000000000000
B1840064103518N10524738WA0379704066000000000000
B1840104103590N10524620WA0378904057000004000000
B1840144103666N10524504WA0378204049000000000000
B1840184103744N10524392WA0377604043000000000000
B1840224103822N10524282WA0376904036000000000000
B1840264103901N10524174WA0376104031000004000000
B1840304103978N10524063WA0375704027000004000000
B1840344104053N10523953WA0375404023000004000000
B1840384104129N10523842WA0375004018000004000000
B1840424104203N10523732WA0374404013000004000000
B1840464104277N10523621WA0374004009000004000000
B1840504104350N10523509WA0373604006000004000000
B1840544104421N10523398WA0373304001000004000000
B1840584104494N10523286WA0372803993000004000000
B1841024104565N10523170WA0372003985000004000000
B1841064104638N10523054WA0371303980000004000000
B1841104104710N10522937WA0371003977000004000000
B1841144104781N10522822WA0370903974000004000000
B1841184104854N10522707WA0370403970000000000000
B1841224104929N10522594WA0370003964000000000000
B1841264105003N10522481WA0369503958000000000000
B1841304105079N10522369WA0369003956000004000000
B1841344105154N10522259WA0368803954000004000000
B1841384105227N10522148WA0368603951000004000000
B1841424105300N10522038WA0368203947000004000000
B1841464105371N10521926WA0367703942000004000000
B1841504105440N10521812WA0367303939000004000000
B1841544105507N10521697WA0367303940000004000000
B1841584105572N10521583WA0367403940000004000000
B1842024105633N10521468WA0367403940000004000000
B1842064105692N10521353WA0367503940000004000000
B1842104105747N10521237WA0367203932000004000000
B1842144105803N10521116WA0366003919000004000000
B1842184105859N10520993WA0365003912000004000000
B1842224105913N10520868WA0364603912000000000000
B1842264105965N10520743WA0364403907000004000000
B1842304106017N10520618WA0364203906000004000000
B1842344106069N10520495WA0364203905000004000000
B1842384106119N10520369WA0363703898000004000000
B1842424106167N10520241WA0363103891000004000000
B1842464106222N10520114WA0362503886000004000000
B1842504106277N10519990WA0362103884000004000000
B1842544106333N10519869WA0361703875000004000000
B1842584106391N10519747WA0360303859000004000000
B1843024106450N10519624WA0359203849000004000000
B1843064106511N10519503WA0358403842000004000000
B1843104106575N10519384WA0357703834000004000000
B1843144106639N10519267WA0356903825000004000000
B1843184106704N10519150WA0356203822000004000000
B1843224106770N10519037WA0356003822000000000000
B1843264106836N10518928WA0356203824000004000000
B1843304106900N10518822WA0356603825000004000000
B1843344106965N10518714WA0356303819000000000000
B1843384107033N10518607WA0355703812000000000000
B1843424107106N10518502WA0354703802000000000000
B1843464107178N10518398WA0354103799000000000000
B1843504107251N10518295WA0354303808000000000000
B1843544107321N10518196WA0355503816000000000000
B1843584107392N10518097WA0355403806000000000000
B1844024107466N10517997WA0354203796000000000000
B1844064107536N10517895WA0353703793000004000000
B1844104107606N10517795WA0353103780000000000000
B1844144107676N10517691WA0351403765000000000000
B1844184107748N10517585WA0350003753000000000000
B1844224107819N10517480WA0349303743000000000000
B1844264107892N10517373WA0348203730000000000000
B1844304107971N10517271WA0348003735000000000000
B1844344108056N10517177WA0348003733000000000000
B1844384108140N10517089WA0347903732000004000000
B1844424108224N10517004WA0347803730000004000000
B1844464108309N10516925WA0347603726000004000000
B1844504108394N10516844WA0347003715000004000000
B1844544108478N10516760WA0345903705000004000000
B1844584108563N10516678WA0345103699000004000000
B1845024108647N10516595WA0344503690000004000000
B1845064108731N10516505WA0344003691000004000000
B1845104108811N10516415WA0344903711000000000000
B1845144108883N10516332WA0347403741000000000000
B1845184108946N10516255WA0350803769000000000000
B1845224109018N10516210WA0352603786000004000000
B1845264109091N10516223WA0353503795000000000000
B1845304109134N10516303WA0354203801000000000000
B1845344109115N10516402WA0355003813000000000000
B1845384109052N10516459WA0356303825000000000000
B1845424108978N10516449WA0357703842000000000000
B1845464108926N10516376WA0359203854000000000000
B1845504108916N10516274WA0359603857000000000000
B1845544108957N10516175WA0360103867000000000000
B1845584109030N10516118WA0361103872000000000000
B1846024109110N10516115WA0361703886000000000000
B1846064109173N10516172WA0363303899000000000000
B1846104109189N10516264WA0364403915000000000000
B1846144109161N10516352WA0365803918000000000000
B1846184109096N10516404WA0365803922000000000000
B1846224109018N10516391WA0366703939000000000000
B1846264108959N10516324WA0368603953000004000000
B1846304108942N10516220WA0369103958000000000000
B1846344108985N10516124WA0370003970000004000000
B1846384109062N10516076WA0370803976000004000000
B1846424109144N10516097WA0371403985000004000000
B1846464109195N10516173WA0372804006000004000000
B1846504109202N10516271WA0374304016000004000000
B1846544109163N10516358WA0374504015000000000000
B1846584109087N10516396WA0374804023000000000000
B1847024109011N10516367WA0376204042000000000000
B1847064108958N10516287WA0378104056000000000000
B1847104108941N10516184WA0379204068000000000000
B1847144108966N10516084WA0380004081000000000000
B1847184109031N10516027WA0381404095000000000000
B1847224109108N10516028WA0382404104000000000000
B1847264109166N10516089WA0383204108000004000000
B1847304109183N10516185WA0383804116000004000000
B1847344109148N10516276WA0384404121000004000000
B1847384109076N10516319WA0385104134000004000000
B1847424109001N10516296WA0386604151000000000000
B1847464108955N10516215WA0388204167000000000000
B1847504108954N10516114WA0389404174000000000000
B1847544109004N10516029WA0389504176000000000000
B1847584109083N10515994WA0390004190000000000000
B1848024109163N10516015WA0391504202000000000000
B1848064109221N10516085WA0392704217000004000000
B1848104109236N10516183WA0394204228000004000000
B1848144109206N10516277WA0394604227000004000000
B1848184109139N10516339WA0395104238000004000000
B1848224109057N10516353WA0396404250000000000000
B1848264108984N10516301WA0397704269000000000000
B1848304108953N10516207WA0399404289000000000000
B1848344108968N10516107WA0400504291000000000000
B1848384109035N10516042WA0400304290000004000000
B1848424109118N10516047WA0400704298000000000000
B1848464109184N10516118WA0401404308000000000000
B1848504109205N10516222WA0403004325000000000000
B1848544109174N10516318WA0404104335000000000000
B1848584109102N10516367WA0404904346000004000000
B1849024109019N10516359WA0406004360000004000000
B1849064108952N10516302WA0407604374000004000000
B1849104108926N10516205WA0408904387000004000000
B1849144108944N10516105WA0409604395000004000000
B1849184109001N10516032WA0410404400000004000000
B1849224109079N10516014WA0410804402000000000000
B1849264109152N10516058WA0411304410000000000000
B1849304109196N10516147WA0412404426000000000000
B1849344109209N10516246WA0414204447000000000000
B1849384109184N10516336WA0415804458000000000000
B1849424109118N10516384WA0416704468000000000000
B1849464109040N10516370WA0417504483000004000000
B1849504108983N10516301WA0418704488000004000000
B1849544108970N10516198WA0419304498000004000000
B1849584109005N10516102WA0420404508000004000000
B1850024109071N10516040WA0421204516000004000000
B1850064109152N10516023WA0422204530000004000000
B1850104109225N10516054WA0423904550000004000000
B1850144109277N10516124WA0425204558000004000000
B1850184109300N10516219WA0425804565000000000000
B1850224109279N10516319WA0426804574000000000000
B1850264109226N10516392WA0427704585000004000000
B1850304109149N10516410WA0428604591000000000000
B1850344109075N10516362WA0429304600000000000000
B1850384109033N10516268WA0430304613000000000000
B1850424109035N10516164WA0431304623000000000000
B1850464109072N10516071WA0432304632000000000000
B1850504109136N10516010WA0433004641000000000000
B1850544109215N10515998WA0433904650000000000000
B1850584109291N10516034WA0434804660000000000000
